:1000000029C0000042C000004AC500003EC00000F8
:100010003CC000003AC0000038C0000036C00000FC
:1000200034C0000032C0000030C00000FAC400003C
:100030002CC000003AC0000028C0000026C000000C
:1000400024C0000022C0000020C000001EC000002C
:100050001CC0000011241FBECFE5D4E0DEBFCDBF21
:1000600010E0A0E6B0E0E4E0FCE002C005900D92F4
:10007000AA37B107D9F723E0AAE7B0E001C01D9283
:10008000A438B207E1F766D5BBC5BACF08959C0185
:10009000641750F45D9BFECFF901E60FF11D9081CE
:1000A0009CB96F5F4613F6CF08951F920F920FB65B
:1000B0000F9211240F900FBE0F901F901895AF92C2
:1000C000BF92CF92DF92EF92FF920F931F93CF9345
:1000D000DF9300D000D0CDB7DEB7AC0110927D0029
:1000E0001092820230917B00832F90E0FA01E80F9A
:1000F000F91F20812134E9F4FA01E80FF91F218169
:10010000243509F00FC4FA01E80FF91F928180919C
:100110007C0098130AC045E060E081E690E0B7DF1C
:1001200080917A0080937B0001C481E080937D0000
:1001300001C42D3409F00CC2FA01E80FF91F8181C6
:10014000873509F0BFC03F5F30937B0070917C0022
:10015000E0916000AE2EB12CC12CD12CEE24E394A2
:100160008EC090918202923021F481E080937D00D4
:10017000E1C321E0280F20937B00DA01A20FB11D1B
:100180002C91022E000C330B2A153B0599F4A2E0AA
:10019000A80FA0937B00FF24F394F90EF092820243
:1001A000109280029A012A0F311DF9019081791372
:1001B00026C0CFC381E080937D0014C490539A3051
:1001C000D8F46F5F609380028901000F111F220F26
:1001D000331F220F331F220F331F200F311F2053D5
:1001E00031099C91290F311D97FD3A958F5F8093BE
:1001F0007B00633079F416C0E0927D0013C090322A
:1002000009F4A7C390539A3008F4C4C360E02C2DBE
:100210003D2DF2CFDA01A80FB11D9C91791711F095
:10022000903261F6A0917B00CA018A0F911DFC01FA
:100230008081082E000C990BA816B90639F403C06A
:1002400060E02C2D3D2DA150A0937B00611104C0D6
:1002500081E080937D00C6C32F3F310529F020F057
:1002600081E080937D00BEC3F1E0FF1203C02093C4
:100270007E0005C082E0F81202C0209381028091C6
:100280007B00DA01A80FB11D9C9197136ACF809172
:100290008202823020F481E080937D004BC3809104
:1002A0007D00813009F446C3E0917E00F0E0E15822
:1002B000FF4F80918102808345E060E081E690E01D
:1002C000E6DE34C3823509F02DC33F5F30937B00F7
:1002D00070917C00E0916000AE2EB12CC12CD12C2D
:1002E000EE24E39488C090918202913021F481E061
:1002F00080937D001FC321E0280F20937B00DA014B
:10030000A20FB11D2C91022E000C330B2A153B05B8
:1003100099F4A2E0A80FA0937B00FF24F394F90EB8
:10032000F0928202109280029A012A0F311DF90187
:100330009081791326C015C381E080937D0058C356
:1003400090539A30D8F46F5F609380028901000F58
:10035000111F220F331F220F331F220F331F200FB5
:10036000311F205331099C91290F311D97FD3A957A
:100370008F5F80937B00633079F416C0E0927D003C
:1003800013C0903209F4EDC290539A3008F410C3B0
:1003900060E02C2D3D2DF2CFDA01A80FB11D9C910C
:1003A000791711F0903261F6A0917B00CA018A0F93
:1003B000911DFC018081082E000C990BA816B9062E
:1003C00039F403C060E02C2D3D2DA150A0937B009B
:1003D000611104C081E080937D000AC32F3F310585
:1003E00029F020F081E080937D0002C3F1E0FF124C
:1003F00002C020937E0080917B00DA01A80FB11D1E
:100400009C91971370CF80918202811104C081E08A
:1004100080937D008FC280917D00813009F48AC273
:10042000E0917E00F0E0E158FF4F808180938102EF
:1004300041E060E087E690E02ADE8091810209E2F7
:10044000809F812D11241DEC82958F704AE0BE01A2
:100450006F5F7F4F90E0A1D3FC0101900020E9F78E
:1004600031977F01E81AF90A80918102809F812DDE
:10047000112482958F704AE0BE016F5F7F4F90E03C
:100480008CD34E2D60E003DE80918102809F812D10
:10049000112482958F704AE0BE016F5F7F4F90E01C
:1004A0007CD3FC0101900020E9F731977F01E81A25
:1004B000F90A80918102819F812D1124869586956C
:1004C0008695819F912D1124969596959695990FD5
:1004D000292F220F220F920F891B4AE0BE016F5F66
:1004E0007F4F90E05AD34E2D60E0D1DD80918102A4
:1004F000809F812D112482958F704AE0BE016F5F2D
:100500007F4F90E04AD3FC0101900020E9F731973A
:100510007F01E81AF90A80918102819F912D1124AF
:10052000969596959695990F292F220F220F920F47
:10053000891B4AE0BE016F5F7F4F90E02ED34E2DA6
:1005400060E0A5DD42E060E084E690E0A0DDEEC181
:10055000233509F0E7C1FA01E80FF91F218125359C
:1005600009F0E0C1FA01E80FF91F82818D3409F02A
:10057000D9C13E5F30937B0070917C00E0916000B8
:10058000F0E0C12CD12CEE24E39495C0609182025E
:10059000623021F481E080937D0099C081E0830F77
:1005A00080937B00DA01A80FB11D8C91082E000CFE
:1005B000990B8E179F0791F422E0230F20937B0065
:1005C000FF24F394F60EF092820210928002DA0178
:1005D000A20FB11D8C91781325C0CBC181E080930F
:1005E0007D0071C020532A30D0F46F5F6093800289
:1005F0008C01000F111F880F991F880F991F880FFA
:10060000991F800F911FC0972C91820F911D27FD7C
:100610009A953F5F30937B00633079F416C0E09287
:100620007D0013C0803209F4A4C180538A3008F4DD
:10063000CDC160E08C2D9D2DF2CFDA01A30FB11D4D
:100640002C91721711F0203269F620917B00DA01AB
:10065000A20FB11DAC910A2E000CBB0BEA17FB07D1
:1006600039F403C060E08C2D9D2D215020937B0038
:10067000611104C081E080937D0025C08F3F91050A
:1006800029F020F021E0F2127CC12FC080319105C9
:1006900038F032E0F31279C181E080937D0017C019
:1006A00021E0F21203C080937E0005C032E0F31215
:1006B00002C08093810230917B00DA01A30FB11D4B
:1006C0008C91871363CF80918202823070F0E09129
:1006D0007E008E2F90E04091810250E09C01240F1B
:1006E000351F2F3F310529F024F081E080937D00F4
:1006F00021C120917D00213009F41CC14817590700
:100700006CF0F0E0E158FF4F00E010E02191020FA3
:10071000111D019648175907CCF702C000E010E000
:1007200041E060E087E690E0B2DC809181020F2E2C
:10073000F9E2DF2EF02D8D9D812D112482958F7091
:100740004AE0BE016F5F7F4F90E027D2FC0101902D
:100750000020E9F731977F01E81AF90A98013695E8
:1007600027953695279536952795A5ECB0E206D2C4
:10077000FC01F295E295EF70EF27FF70EF279F01E4
:10078000ADECBCECFBD196958795969587959695A3
:1007900087959C01220F331F880F991F880F991F7F
:1007A000880F991F820F931F4AE0BE016F5F7F4F32
:1007B0009F01281B390BC901F0D14E2D60E067DC89
:1007C000809181028D9D812D112482958F704AE048
:1007D000BE016F5F7F4F90E0E0D1FC0101900020EF
:1007E000E9F731977F01E81AF90A980136952795BC
:1007F00036952795ABE7B4E1C1D1FC01F695E795B5
:100800009F01ADECBCECBAD19695879596958795EE
:10081000969587959C01220F331F880F991F880F8B
:10082000991F880F991F820F931F4AE0BE016F5FC7
:100830007F4F9F01281B390BC901AFD14E2D60E0BE
:1008400026DC809181028D9D812D112482958F70EF
:100850004AE0BE016F5F7F4F90E09FD1FC010190A5
:100860000020E9F731975F01A81AB90A9801ADECA9
:10087000BCEC84D17C01F694E794F694E794F6946A
:10088000E79497017BD19695879596958795969550
:1008900087959C01220F331F880F991F880F991F7E
:1008A000880F991F820F931F4AE0BE016F5F7F4F31
:1008B000F701E81BF90BCF0170D14A2D60E0E7DBAF
:1008C000809181028D9D812D112482958F704AE047
:1008D000BE016F5F7F4F90E060D1FC01019000206E
:1008E000E9F731976F01C81AD90AC701880F991F14
:1008F000EE0CFF1CEE0CFF1CEE0CFF1C8E0D9F1D62
:100900004AE0BE016F5F7F4F9801281B390BC90178
:1009100044D14C2D60E0BBDB42E060E084E690E037
:10092000B6DB04C081E080937D0004C080917D002F
:10093000813049F480917A0080937B0045E060E04B
:1009400089E690E0A4DB80917B008F5F80937B0041
:1009500059C0892F990F990BA816B90609F470CCC4
:1009600077CC892F990F990BA816B90609F42ACDCF
:1009700031CD082E000C990BE817F90709F472CE57
:1009800079CE80319105D0F591CE31E0F31609F49E
:100990008ACE91CEE0928002F9012081022E000CD5
:1009A000330B205331098D5F80937B0061E032CCA3
:1009B000E0928002F9012081022E000C330B2053BB
:1009C00031098D5F80937B0061E0E6CCE09280028C
:1009D0008C91082E000C990BC0973D5F30937B00E3
:1009E00061E02BCE80918202823008F454CCA2CFF9
:1009F00080918202882309F40ACD9CCF22E0F21272
:100A00005ACE4ACE0F900F900F900F90DF91CF915A
:100A10001F910F91FF90EF90DF90CF90BF90AF901C
:100A200008951F920F920FB60F9211242F933F93A8
:100A30004F935F936F937F938F939F93AF93BF93E6
:100A4000EF93FF938CB1E0917A00F0E0EC57FD4F0B
:100A500080835D9BFECF8CB9E0917A00F0E0EC578B
:100A6000FD4F908180917C00981303C084E892E050
:100A700026DB80917A008F5F80937A00FF91EF915F
:100A8000BF91AF919F918F917F916F915F914F91A6
:100A90003F912F910F900FBE0F901F9018951F92AE
:100AA0000F920FB60F9211248F939F938091830220
:100AB000811134C080917F018F5F80937F018530E9
:100AC00020F081E080937F0102C0813031F4C09A30
:100AD00098B388E0892788BB1EC0823049F498B358
:100AE00088E0892788BB98B384E0892788BB13C036
:100AF000833049F498B384E0892788BB98B382E0B7
:100B0000892788BB08C098B382E0892788BB98B33F
:100B100081E0892788BB81E0809383029F918F9138
:100B20000F900FBE0F901F90189510BC83E389B9EA
:100B300080B58F7E80BD80B58F7D80BD80B5877F7D
:100B400080BD86E880BD52988AB188618AB9569A7C
:100B5000579A08959BDAE9DF789449E060E08FE6E0
:100B600090E095DA2FEF84E39CE0215080409040A4
:100B7000E1F700C0000080E090E00895A29FB0017E
:100B8000B39FC001A39F700D811D1124911DB29FC1
:100B9000700D811D1124911D0895BB274A3031F439
:100BA000992322F4BDE2909581959F4F01C0BB2708
:100BB000FB015527AA27880F991FAA1FA41710F019
:100BC000A41B83955051B9F7A05DAA3308F0A95D25
:100BD000A193009779F7B111B1931192CB0100C0A5
:100BE000DC01FC01672F71917723E1F7329704C094
:100BF0007C916D9370836291AE17BF07C8F308951F
:040C0000F894FFCF96
:100C0400200A4F4B0A0D000A000A45520A0D000A39
:0A0C14000D476F6F64627965000000
:00000001FF
