:1000000029C0000042C0000040C000003EC0000007
:100010003CC000003AC0000038C0000036C00000FC
:1000200034C0000032C0000030C00000F5C2000043
:100030002CC000003AC0000028C0000026C000000C
:1000400024C0000022C0000020C000001EC000002C
:100050001CC0000011241FBECFE5D4E0DEBFCDBF21
:1000600010E0A0E6B0E0E8E0F7E002C005900D92F5
:10007000A437B107D9F722E0A4E7B0E001C01D9290
:10008000A138B207E1F71BD33DC3BACF08959C0155
:10009000641750F45D9BFECFF901E60FF11D9081CE
:1000A0009CB96F5F4613F6CF08951F920F920FB65B
:1000B0000F9211240F900FBE0F901F901895EF9282
:1000C000FF920F931F93CF93DF93AC0110927700B1
:1000D00010927F0130917500832F90E0FA01E80FB4
:1000E000F91F20812134E9F4FA01E80FF91F218179
:1000F000243509F025C2FA01E80FF91F9281809199
:10010000760098130AC043E060E08CE690E0BFDF21
:10011000809174008093750017C281E0809377000E
:1001200017C22D3409F054C1FA01E80FF91F81817B
:10013000873509F0A9C03F5F309375007091760054
:10014000A0916000B0E0E12CF12C01E08CC0109196
:100150007F01123021F481E080937700F9C191E0B2
:10016000980F90937500FA01E90FF11D2081022E7E
:10017000000C330B2A173B0781F4E2E0E80FE09311
:1001800075001F5F10937F0110927B01EA01CE0F73
:10019000D11D9881791326C0EAC181E08093770050
:1001A000EEC190539A30D8F46F5F60937B01E90100
:1001B000CC0FDD1F220F331F220F331F220F331FDF
:1001C0002C0F3D1F205331099081290F311D97FDC0
:1001D0003A958F5F80937500633079F416C0009371
:1001E000770013C0903209F4C2C190539A3008F4DA
:1001F000E6C160E02E2D3F2DF2CFFA01E80FF11D90
:100200009081791711F0903261F6E0917500EA0162
:10021000CE0FD11D8881082E000C990BA817B907A5
:1002200039F403C060E02E2D3F2DE150E0937500BE
:10023000611104C081E080937700A1C12F3F310597
:1002400029F020F081E08093770099C1113029F4E2
:1002500030937A002093790006C0123021F4309355
:100260007D0120937C0180917500FA01E80FF11D5A
:10027000908197136CCF80917F01823008F064C128
:1002800081E08093770064C1823509F059C13F5FF6
:100290003093750070917600A0916000B0E0E12C81
:1002A000F12C01E085C010917F01113021F481E033
:1002B000809377004DC191E0980F90937500FA01FB
:1002C000E90FF11D2081022E000C330B2A173B078A
:1002D00081F4E2E0E80FE09375001F5F10937F0167
:1002E00010927B01EA01CE0FD11D9881791326C0AF
:1002F0004BC181E0809377004FC190539A30D8F47E
:100300006F5F60937B01E901CC0FDD1F220F331F6C
:10031000220F331F220F331F2C0F3D1F2053310993
:100320009081290F311D97FD3A958F5F809375005D
:10033000633079F416C00093770013C0903209F44B
:1003400023C190539A3008F447C160E02E2D3F2D11
:10035000F2CFFA01E80FF11D9081791711F0903278
:1003600061F6E0917500EA01CE0FD11D8881082E5B
:10037000000C990BA817B90739F403C060E02E2DC3
:100380003F2DE150E0937500611104C081E080933E
:10039000770002C12F3F310529F020F081E08093E2
:1003A0007700FAC0113021F430937A00209379005D
:1003B00080917500FA01E80FF11D9081971373CFBA
:1003C00080917F018111C0C081E080937700C0C01F
:1003D000233509F0B5C0FA01E80FF91F2181253551
:1003E00009F0AEC0FA01E80FF91F82818D3409F0DF
:1003F000A7C03E5F3093750070917600A0916000B9
:10040000B0E0E12CF12C01E08BC010917F011230A3
:1004100021F481E0809377009BC081E0830F80937B
:100420007500FA01E80FF11D8081082E000C990B70
:100430008A179B0781F422E0230F209375001F5F2A
:1004400010937F0110927B01FA01E20FF11D808170
:10045000781325C0A7C081E080937700ABC02053FC
:100460002A30D0F46F5F60937B01EC01CC0FDD1F6D
:10047000880F991F880F991F880F991F8C0F9D1F38
:10048000C0972081820F911D27FD9A953F5F309381
:100490007500633079F416C00093770013C0803282
:1004A00009F480C080538A3008F4A3C060E08E2D28
:1004B0009F2DF2CFFA01E30FF11D2081721711F089
:1004C000203269F620917500FA01E20FF11DE081FA
:1004D0000E2E000CFF0BAE17BF0739F403C060E00F
:1004E0008E2D9F2D215020937500611104C081E055
:1004F000809377005FC08F3F910529F020F081E065
:100500008093770057C0113029F490937A0080933C
:10051000790006C0123021F490937D0180937C0114
:1005200030917500FA01E30FF11D808187136DCFC3
:1005300080917F01823040F481E08093770008C091
:1005400081E08093770004C080917700813049F486
:10055000809174008093750043E060E080E790E054
:1005600096DD809175008F5F809375004EC0892F56
:10057000990F990BA817B90709F454CE5BCE809157
:100580007F01823028F77CCE892F990F990BA8170D
:10059000B90709F4F3CEFACE80917F01882309F4DC
:1005A00013CFD6CF082E000C990BA817B90709F462
:1005B00096CF9DCF80917F01823050F6BDCF0093C2
:1005C0007B012881022E000C330B205331098D5FF3
:1005D0008093750061E011CE00937B012881022E8B
:1005E000000C330B205331098D5F8093750061E05F
:1005F000B0CE00937B018081082E000C990BC09730
:100600003D5F3093750061E055CFDF91CF911F9131
:100610000F91FF90EF9008951F920F920FB60F92D7
:1006200011242F933F934F935F936F937F938F93F7
:100630009F93AF93BF93EF93FF938CB1E0917400BE
:10064000F0E0E058FE4F80835D9BFECF8CB9E091D7
:100650007400F0E0E058FE4F90818091760098138E
:1006600003C080E891E02BDD809174008F5F809360
:100670007400FF91EF91BF91AF919F918F917F9106
:100680006F915F914F913F912F910F900FBE0F90FF
:100690001F90189510BC83E389B980B58F7E80BD0B
:1006A00080B58F7D80BD80B5877F80BD86E880BDA9
:1006B00052988AB188618AB9569A579A0895E6DCA9
:1006C000E9DF78948DE090E0909377008093760056
:1006D00083E190E090937F0180937E0181E190E03F
:1006E000909381028093800283E090E09093790060
:1006F000809378008FEF80936100109275001092C4
:080700007400FFCFF894FFCF55
:1007080020FF0A0D476F6F64627965004F4B0D003B
:0407180045520D0039
:00000001FF
