:1000000029C0000042C0000040C000003EC0000007
:100010003CC000003AC0000038C0000036C00000FC
:1000200034C0000032C0000030C00000ADC100008C
:100030002CC000003AC0000028C0000026C000000C
:1000400024C0000022C0000020C000001EC000002C
:100050001CC0000011241FBECFE5D4E0DEBFCDBF21
:1000600010E0A0E6B0E0E8E7F4E002C005900D92F1
:10007000A239B107D9F722E0A2E9B0E001C01D9290
:10008000AF39B207E1F7D3D1F5C1BACF08959C01DA
:10009000641750F45D9BFECFF901E60FF11D9081CE
:1000A0009CB96F5F4613F6CF08951F920F920FB65B
:1000B0000F9211240F900FBE0F901F901895EF9282
:1000C000FF920F931F93CF93DF938C0110929500B3
:1000D00010929D0130919300832F90E0F801E80F7A
:1000E000F91F20812134E9F4F801E80FF91F21817B
:1000F000243509F01BC1F801E80FF91F92818091A6
:10010000940098130AC043E060E08CE690E0BFDF03
:1001100080919200809393000DC181E080939500BF
:100120000DC12D3409F002C1F801E80FF91F8181DA
:10013000873509F0FBC03F5F30939300E12CF12C31
:10014000DEC090919D01923049F441E060E080E78B
:1001500090E09DDF81E0809395000AC18F5F8093DE
:10016000930045E060E082E790E091DF40919200EB
:1001700060919300C8018BDF80919300F801E80F34
:10018000F11D4081042E000C550B2091600030E0E1
:100190004217530701F58F5F8093930045E060E0BD
:1001A00088E790E074DF4091920060919300C8016D
:1001B0006EDF80919D018F5F80939D011092990168
:1001C00020919300F801E20FF11D8081909194003D
:1001D000891343C0C2C041E060E08EE790E057DF82
:1001E00081E080939500C4C080538A3020F02CC0F9
:1001F00090E0CE2DDF2D9F5F90939901CE01880F67
:10020000991FCC0FDD1FCC0FDD1FCC0FDD1FC80FDA
:10021000D91FE0978081C80FD11D87FDDA9545E091
:1002200060E080E890E033DF6091930041E0460FAA
:10023000C8012DDF809193008F5F80939300909190
:100240009901933098F01DC041E060E086E890E0AD
:100250001EDF81E08093950014C0803209F47DC0D8
:1002600080538A3028F2CE2DDF2DEECFF801E80F33
:10027000F11D808120919400821719F0803209F0DD
:10028000B3CF20919300F801E20FF11D4081042EBD
:10029000000C550B8091600090E04817590731F42D
:1002A00002C0CE2DDF2D2150209393008091990123
:1002B000811109C041E060E088E890E0E8DE81E07B
:1002C0008093950055C0CF3FD10551F048F041E0F3
:1002D00060E08AE890E0DBDE81E08093950048C032
:1002E00080919D01813029F4D0939800C0939700AC
:1002F00006C0823021F4D0939B01C0939A01809173
:100300009300F801E80FF11D2081909194002913CA
:1003100018CF80919D01823068F441E060E08CE864
:1003200090E0B5DE81E08093950008C081E0809385
:10033000950004C080919500813049F4809192002D
:100340008093930043E060E08EE890E0A0DE80912F
:1003500093008F5F8093930010C0082E000C990BC0
:100360004091600050E08417950709F49ACFA2CF1E
:1003700080919D01823010F7D0CFDF91CF911F91F6
:100380000F91FF90EF9008951F920F920FB60F926A
:1003900011242F933F934F935F936F937F938F938A
:1003A0009F93AF93BF93EF93FF938CB1E091920033
:1003B000F0E0E256FE4F80835D9BFECF8CB9E0916A
:1003C0009200F0E0E256FE4F9081809194009813E5
:1003D00003C08EE991E073DE809192008F5F80937D
:1003E0009200FF91EF91BF91AF919F918F917F917B
:1003F0006F915F914F913F912F910F900FBE0F9092
:100400001F90189510BC83E389B980B58F7E80BD9D
:1004100080B58F7D80BD80B5877F80BD86E880BD3B
:1004200052988AB188618AB9569A579A08952EDEF1
:10043000E9DF78948DE090E09093950080939400AC
:1004400083E190E090939D0180939C0181E190E095
:1004500090939F0280939E0283E090E09093970098
:10046000809396008FEF809361001092930010921A
:080470009200FFCFF894FFCFCA
:1004780020FF0A0D476F6F64627965004F4B0D00CE
:1004880031000D0A410D0A000D0A420D0A00320022
:100498000D0A430D0A00330034003500360045527A
:0204A8000D0045
:00000001FF
