:1000000029C0000042C0000040C000003EC0000007
:100010003CC000003AC0000038C0000036C00000FC
:1000200034C0000032C0000030C00000B9C300007E
:100030002CC000003AC0000028C0000026C000000C
:1000400024C0000022C0000020C000001EC000002C
:100050001CC0000011241FBECFE5D4E0DEBFCDBF21
:1000600010E0A0E6B0E0E6EFF8E002C005900D92E7
:10007000AC37B107D9F723E0ACE7B0E001C01D927F
:10008000A738B207E1F7DFD334C4BACF08959C0193
:10009000641750F45D9BFECFF901E60FF11D9081CE
:1000A0009CB96F5F4613F6CF08951F920F920FB65B
:1000B0000F9211240F900FBE0F901F901895AF92C2
:1000C000BF92CF92DF92EF92FF920F931F93CF9345
:1000D000DF9300D01F92CDB7DEB7AC0110927F0046
:1000E0001092850230917D00832F90E0FA01E80F95
:1000F000F91F20812134E9F4FA01E80FF91F218169
:10010000243509F0D7C2FA01E80FF91F92818091D6
:100110007E0098130AC043E060E08CE690E0B7DF11
:1001200080917C0080937D00C9C281E080937F0034
:10013000C9C22D3409F005C2FA01E80FF91F818107
:10014000873509F0BFC03F5F30937D0070917E001E
:10015000E0916000AE2EB12CC12CD12CEE24E394A2
:100160008EC090918502923021F481E080937F00CF
:10017000A9C221E0280F20937D00DA01A20FB11D52
:100180002C91022E000C330B2A153B0599F4A2E0AA
:10019000A80FA0937D00FF24F394F90EF09285023E
:1001A000109282029A012A0F311DF9019081791370
:1001B00026C097C281E080937F00D8C290539A30C6
:1001C000D8F46F5F609382028901000F111F220F24
:1001D000331F220F331F220F331F200F311F2053D5
:1001E00031099C91290F311D97FD3A958F5F8093BE
:1001F0007D00633079F416C0E0927F0013C0903226
:1002000009F46FC290539A3008F488C260E02C2D34
:100210003D2DF2CFDA01A80FB11D9C91791711F095
:10022000903261F6A0917D00CA018A0F911DFC01F8
:100230008081082E000C990BA816B90639F403C06A
:1002400060E02C2D3D2DA150A0937D00611104C0D4
:1002500081E080937F008AC22F3F310529F020F092
:1002600081E080937F0082C2F1E0FF1203C02093FF
:10027000810005C082E0F81202C0209383028091C1
:100280007D00DA01A80FB11D9C9197136ACF809170
:100290008502823020F481E080937F0013C2809138
:1002A0007F00813009F40EC2E0918100F0E0EE574A
:1002B000FF4F80918302808344E060E080E790E01C
:1002C000E6DEFCC1823509F0F5C13F5F30937D0069
:1002D00070917E00E0916000AE2EB12CC12CD12C2B
:1002E000EE24E39488C090918502913021F481E05E
:1002F00080937F00E7C121E0280F20937D00DA0181
:10030000A20FB11D2C91022E000C330B2A153B05B8
:1003100099F4A2E0A80FA0937D00FF24F394F90EB6
:10032000F0928502109282029A012A0F311DF90182
:100330009081791326C0DDC181E080937F001CC2CB
:1003400090539A30D8F46F5F609382028901000F56
:10035000111F220F331F220F331F220F331F200FB5
:10036000311F205331099C91290F311D97FD3A957A
:100370008F5F80937D00633079F416C0E0927F0038
:1003800013C0903209F4B5C190539A3008F4D4C127
:1003900060E02C2D3D2DF2CFDA01A80FB11D9C910C
:1003A000791711F0903261F6A0917D00CA018A0F91
:1003B000911DFC018081082E000C990BA816B9062E
:1003C00039F403C060E02C2D3D2DA150A0937D0099
:1003D000611104C081E080937F00CEC12F3F3105C1
:1003E00029F020F081E080937F00C6C1F1E0FF1288
:1003F00002C02093810080917D00DA01A80FB11D19
:100400009C91971370CF80918502811104C081E087
:1004100080937F0057C180917F00813009F452C1E1
:10042000E0918100F0E0EE57FF4F808180938302DE
:1004300009E2809F812D11241DEC82958F704AE086
:10044000BE016F5F7F4F90E021D2FC010190002040
:10045000E9F731977F01E81AF90A80918302809FBA
:10046000812D112482958F704AE0BE016F5F7F4F0E
:1004700090E00CD24E2D60E00ADE80918302809FD6
:10048000812D112482958F704AE0BE016F5F7F4FEE
:1004900090E0FCD1FC0101900020E9F731977F0149
:1004A000E81AF90A80918302819F812D1124869593
:1004B00086958695819F912D112496959695969572
:1004C000990F292F220F220F920F891B4AE0BE019C
:1004D0006F5F7F4F90E0DAD14E2D60E0D8DD8091E4
:1004E0008302809F812D112482958F704AE0BE0186
:1004F0006F5F7F4F90E0CAD1FC0101900020E9F7C7
:1005000031977F01E81AF90A80918302819F912D2A
:100510001124969596959695990F292F220F220FC3
:10052000920F891B4AE0BE016F5F7F4F90E0AED112
:100530004E2D60E0ACDD42E060E085E790E0A7DDB5
:10054000BDC0233509F0B6C0FA01E80FF91F2181BB
:10055000253509F0AFC0FA01E80FF91F82818D340B
:1005600009F0A8C03E5F30937D0070917E00E0915D
:100570006000F0E0C12CD12CEE24E3948BC060919C
:100580008502623021F481E080937F009BC081E08E
:10059000830F80937D00DA01A80FB11D8C91082E86
:1005A000000C990B8E179F0791F422E0230F2093E4
:1005B0007D00FF24F394F60EF092850210928202E1
:1005C000DA01A20FB11D8C91781325C09AC081E089
:1005D00080937F009EC020532A30D0F46F5F6093D9
:1005E00082028C01000F111F880F991F880F991F1D
:1005F000880F991F800F911FC0972C91820F911D1A
:1006000027FD9A953F5F30937D00633079F416C0E3
:10061000E0927F0013C0803209F473C080538A30A7
:1006200008F498C060E08C2D9D2DF2CFDA01A30F65
:10063000B11D2C91721711F0203269F620917D00C6
:10064000DA01A20FB11DAC910A2E000CBB0BEA1708
:10065000FB0739F403C060E08C2D9D2D21502093C1
:100660007D00611104C081E080937F0052C08F3F04
:10067000910529F020F081E080937F004AC021E0BD
:10068000F21203C08093810005C022E0F21202C082
:100690008093830230917D00DA01A30FB11D8C910C
:1006A00087136DCF80918502823040F481E0809382
:1006B0007F0008C081E080937F0004C080917F00AC
:1006C000813049F480917C0080937D0043E060E0BC
:1006D00088E790E0DCDC80917D008F5F80937D0077
:1006E00051C0892F990F990BA816B90609F4A8CD06
:1006F000AFCD892F990F990BA816B90609F462CED0
:1007000069CE082E000C990BE817F90709F4A3CF5E
:10071000AACF809185028230A8F6C8CFE0928202EB
:10072000F9012081022E000C330B205331098D5F1B
:1007300080937D0061E06ECDE0928202F90120811C
:10074000022E000C330B205331098D5F80937D0006
:1007500061E022CEE09282028C91082E000C990B6F
:10076000C0973D5F30937D0061E060CF809185024E
:10077000823008F490CDA6CF80918502882309F4B9
:1007800046CEA0CF0F900F900F90DF91CF911F9189
:100790000F91FF90EF90DF90CF90BF90AF900895B2
:1007A0001F920F920FB60F9211242F933F934F93E6
:1007B0005F936F937F938F939F93AF93BF93EF93C9
:1007C000FF938CB1E0917C00F0E0EA57FD4F80830D
:1007D0005D9BFECF8CB9E0917C00F0E0EA57FD4FC5
:1007E000908180917E00981303C086E892E067DCD8
:1007F00080917C008F5F80937C00FF91EF91BF918F
:10080000AF919F918F917F916F915F914F913F91A8
:100810002F910F900FBE0F901F90189510BC83E37F
:1008200089B980B58F7E80BD80B58F7D80BD80B554
:10083000877F80BD86E880BD52988AB188618AB979
:10084000569A579A089522DCE9DF78948DE090E07B
:1008500090937F0080937E0083E190E090938502E7
:100860008093840281E190E09093870380938603D4
:1008700083E090E090938100809380008FEF8093DD
:10088000610010927D0010927C00FFCFBB274A30A0
:1008900031F4992322F4BDE2909581959F4F01C0D8
:1008A000BB27FB015527AA27880F991FAA1FA4174A
:1008B00010F0A41B83955051B9F7A05DAA3308F03E
:1008C000A95DA193009779F7B111B1931192CB0172
:1008D00000C0DC01FC01672F71917723E1F73297AB
:1008E00004C07C916D9370836291AE17BF07C8F30B
:0608F0000895F894FFCF0B
:1008F60020FF0A0D476F6F64627965004F4B0D004C
:0C0906004F4B0D0A000A0D0045520D0079
:00000001FF
