S01200006C6162335F70617274332E7372656367
S113000029C0000042C0000040C000003EC0000003
S11300103CC000003AC0000038C0000036C00000F8
S113002034C0000032C0000030C0000055C00000E1
S11300302CC000003AC0000028C0000026C0000008
S113004024C0000022C0000020C000001EC0000028
S11300501CC0000011241FBECFE5D4E0DEBFCDBF1D
S113006010E0A0E6B0E0E4EDF1E002C005900D92EE
S1130070A236B107D9F722E0A2E6B0E001C01D9292
S1130080AE36B207E1F77BD0A3C0BACF08959C0186
S1130090641750F45D9BFECFF901E60FF11D9081CA
S11300A09CB96F5F4613F6CF08951F920F920FB657
S11300B00F9211240F900FBE0F901F90189510925D
S11300C0660010926C01109269014091620060E038
S11300D08DE691E0DCCF08951F920F920FB60F9238
S11300E011242F933F934F935F936F937F938F9339
S11300F09F93AF93BF93EF93FF938CB1E091620012
S1130100F0E0E359FE4F80835D9BFECF8CB9E09114
S11301106200F0E0E359FE4F9081809164009813EF
S113012003C08DE691E0CBDF809162008F5F809306
S11301306200FF91EF91BF91AF919F918F917F9159
S11301406F915F914F913F912F910F900FBE0F9040
S11301501F90189510BC83E389B980B58F7E80BD4C
S113016080B58F7D80BD80B5877F80BD86E880BDEA
S113017052988AB188618AB9569A579A089586DF47
S1130180E9DF789480E290E09093660080936500C4
S11301908DE090E0909365008093640083E190E0AB
S11301A090936C0180936B0181E190E090936E02D7
S11301B080936D0283E090E09093680080936700E1
S11301C08FEF809360001092630010926200FFCF63
S10701D0F894FFCFCD
S10501D4FF0026
S9030000FC
