:1000000029C0000042C0000040C000003EC0000007
:100010003CC000003AC0000038C0000036C00000FC
:1000200034C0000032C0000030C0000055C10000E4
:100030002CC000003AC0000028C0000026C000000C
:1000400024C0000022C0000020C000001EC000002C
:100050001CC0000011241FBECFE5D4E0DEBFCDBF21
:1000600010E0A0E6B0E0E8ECF3E002C005900D92ED
:10007000A437B107D9F722E0A4E7B0E001C01D9290
:10008000AF37B207E1F77BD19DC1BACF08959C018C
:10009000641750F45D9BFECFF901E60FF11D9081CE
:1000A0009CB96F5F4613F6CF08951F920F920FB65B
:1000B0000F9211240F900FBE0F901F901895FF9272
:1000C0000F931F93CF93DF93EC0110927700109260
:1000D0007D0110927A018091750090E0FE01E80F99
:1000E000F91F20812134D1F4FE01E80FF91F21818D
:1000F000243509F0CBC092818091760098130AC014
:1001000043E060E08CE690E0C2DF80917400809371
:100110007500C0C081E080937700C0C02D3409F025
:10012000B5C0FE01E80FF91F8181873509F0AEC027
:1001300099C090917D01923021F481E08093770005
:10014000ADC021E0280F20937500FE01E20FF11DE4
:100150002081022E000C330B4091600050E02417E8
:10016000350761F48E5F809375009F5F90937D01EA
:1001700090917A01933050F1F12E50C081E080933C
:1001800077009FC080538A3010F01DC0F12E9F5F12
:1001900090937A019F2D990F892F880F880F980FC0
:1001A0008081F82EF90E402F612F082E000C990B3C
:1001B0006EDF809175008F5F8093750090917A015A
:1001C0009330B8F02BC00093770028C0FE01E80FF1
:1001D000F11D8081681709F1482F082E000C550B7E
:1001E0002417350709F469C080538A3078F2F12E5C
:1001F000EACFFE01E80FF11D808120917600821781
:1002000069F02091600030E0482F082E000C550B5B
:100210004217530709F0B6CF51C0F12E80917500F7
:10022000FE01E80FF11D4081042E000C550B2091BA
:10023000600030E04217530719F481508093750035
:10024000911104C081E0809377003BC080917D01D3
:10025000813019F4F092790007C0823029F4F092CD
:100260007B0102C010E001E0809175006091760092
:10027000FE01E80FF11D908196135BCF80917D0107
:10028000823040F481E08093770008C081E0809361
:10029000770004C080917700813049F48091740028
:1002A0008093750043E060E080E790E0F0DE8091AD
:1002B00075008F5F8093750009C0F12E80917500E5
:1002C000BCCF80917D01823048F7DCCFDF91CF91A8
:1002D0001F910F91FF9008951F920F920FB60F92EA
:1002E00011242F933F934F935F936F937F938F933B
:1002F0009F93AF93BF93EF93FF938CB1E091740002
:10030000F0E0E258FE4F80835D9BFECF8CB9E09118
:100310007400F0E0E258FE4F9081809176009813CF
:1003200003C08EE791E0CBDE809174008F5F8093F5
:100330007400FF91EF91BF91AF919F918F917F9149
:100340006F915F914F913F912F910F900FBE0F9042
:100350001F90189510BC83E389B980B58F7E80BD4E
:1003600080B58F7D80BD80B5877F80BD86E880BDEC
:1003700052988AB188618AB9569A579A089586DE4A
:10038000E9DF78948DE090E0909377008093760099
:1003900083E190E090937D0180937C0181E190E086
:1003A00090937F0280937E0283E090E090937900A7
:1003B000809378008FEF8093610010927500109207
:0803C0007400FFCFF894FFCF99
:1003C80020FF0A0D476F6F64627965004F4B0D007F
:0403D80045520D007D
:00000001FF
