:1000000029C0000043C0000041C000003FC0000004
:100010003DC000003BC0000039C0000037C00000F8
:10002000F9C3000033C0000031C000000BC700005E
:100030002DC00000C5C2000029C0000027C000007C
:1000400025C0000023C0000021C000001FC0000028
:100050001DC0000011241FBECFE5D4E0DEBFCDBF20
:1000600010E0A0E6B0E0EEEBF2E102C005900D92E8
:10007000AC3CB107D9F721E0ACECB0E001C01D9277
:10008000A03EB207E1F731D70C945D09B9CF0895CE
:100090002F923F924F925F926F927F928F929F9298
:1000A000AF92BF92CF92DF92EF92FF920F931F9386
:1000B000CF93DF93CDB7DEB72E970FB6F894DEBFA0
:1000C0000FBECDBF882E962E2D83482E512CC201F7
:1000D00001979A83898332012FEF621A720A89810C
:1000E0009A81681679060CF4EEC1262E312CC201D5
:1000F000880F991F880F991F880F991FDC01A20D87
:10010000B31DBB87AA87C12C1E86F1013197FF83DF
:10011000EE835101FFEFAF1ABF0A39862886382CCB
:100120008C2C262E942E89819A8199230CF4BCC1A3
:1001300089819A8108970CF0B7C1CE80DF80DC827C
:10014000CB828B819C81A816B9060CF4ADC18B8142
:100150009C8199230CF49DC18B819C8108970CF0A4
:1001600098C16091D9017091DA01E981FA818B819E
:100170009C81EE0FFF1FEE0FFF1FEE0FFF1FE80F1A
:10018000F91FE60FF71F8081891509F482C1E98103
:10019000FA818B819C81EE0FFF1FEE0FFF1FEE0F88
:1001A000FF1FE80FF91FE60FF71F8081823008F06C
:1001B00070C189819A81481659063CF089819A81DB
:1001C0004816590639F0F12C09C00F2EF7E0FF2E22
:1001D000F02D04C00F2EF9E0FF2EF02D8B819C81B5
:1001E000481659064CF08B819C8128853985281743
:1001F000390739F0E12C09C00F2EF7E0EF2EF02D72
:1002000004C00F2EF9E0EF2EF02D89819A81182F6E
:1002100013198B819C81082F021929813A81422F61
:100220008B819C81582FAD81AA2341F13327E12F87
:10023000F0E0EF0DF11D2E173F0709F42AC19927B1
:10024000A02FB0E06D01CE0CD11CDD86CC868C15C4
:100250009D0509F41EC1220F331F220F331F220FE9
:10026000331F820F931F860F971FDC012C912230C2
:1002700008F00FC18C919812A2C091C03327A12F12
:10028000B0E0AF0DB11D2A173B0709F402C1992751
:10029000E02FF0E06F01CE0CD11CDD86CC868C15F2
:1002A0009D0509F4F6C0220F331F220F331F220FC2
:1002B000331F820F931F860F971FFC01208122306E
:1002C00008F0E7C08081981215C056C1880F991FA9
:1002D000880F991F880F991F820F931F860F971FF2
:1002E000FC012081223008F0D4C08081981609F4E6
:1002F00043C102C0CC84DD84500F410F842F90E0B5
:100300008A179B0709F4C5C0252F30E02C153D0541
:10031000E9F6BFC0E91609F499C0F901FF27EE0F0D
:10032000FF1FEE0FFF1FEE0FFF1FE40FF11DE60F83
:10033000F71F2081223008F08CC02081921212C059
:100340008BC0E92FF0E028E0829FE00DF11D112421
:10035000E60FF71F2081223008F081C0208192161D
:1003600009F480C08394900F810FF81609F47DC0C2
:10037000E912E7CF31E03E878CC0880F991F880FC4
:10038000991F880F991F820F931F860F971FDC01FB
:100390002C91223008F07DC08C91981212C0EA8511
:1003A000FB85E60FF71F908289819A81482F6B8128
:1003B0007C81562FF81213C0B1E0BE876AC0CC848E
:1003C000DD84500F410F842F90E08E179F0709F4B2
:1003D00060C0252F30E02C153D0579F65AC0E61691
:1003E00009F446C09927880F991F880F991F880F15
:1003F000991F860F911D2091D9013091DA01F901E1
:10040000E80FF91F80818230B0F58081981214C006
:1004100035C0E52FF0E028E0429FE00DF11D1124EA
:100420008091D9019091DA01E80FF91F8081823023
:1004300040F58081981641F19082500F410FF416DB
:1004400031F1E512E6CF31E03E8723C081E08E87AF
:1004500020C091E09E871DC0A1E0AE871AC0B1E028
:10046000BE8717C0E1E0EE8714C0F1E0FE8711C03F
:1004700021E02E870EC031E03E870BC081E08E87E1
:1004800008C091E09E8705C0A1E0AE8702C0B1E040
:10049000BE878B819C8101969C838B838B819C8101
:1004A000A816B9060CF053CE89819A8101969A83D9
:1004B000898389819A81681679060CF034CEC82C1C
:1004C000832C922C02C0C12C1E86ED81E1114EC0FE
:1004D0002091D9013091DA01E091D000F0E0EE0FE7
:1004E000FF1FEE0FFF1FEE0FFF1F8091CF00E80FE1
:1004F000F11DE20FF31F6081440C551C440C551C88
:10050000440C551CC201890D911DFC01E959FF4F96
:10051000E08170E04C2D50E0425F5F4F4E0F511D67
:10052000461757071CF1D901A80FB91FE25FCE0E7D
:10053000CC92E091D000F0E0EE0FFF1FEE0FFF1F16
:10054000EE0FFF1F8091CF006F01C80ED11CE0910C
:10055000D901F091DA01EC0DFD1D8081833010F09E
:1005600082E080838092D0009092CF0081E02E853F
:10057000213069F080E00BC029813A81822F4B81C4
:100580005C81942FF212C6CE31E03E8782CF2E9648
:100590000FB6F894DEBF0FBECDBFDF91CF911F9194
:1005A0000F91FF90EF90DF90CF90BF90AF909F9012
:1005B0008F907F906F905F904F903F902F90089515
:1005C0001F920F920FB60F9211240F900FBE0F9033
:1005D0001F9018959C01641750F45D9BFECFF901A4
:1005E000E60FF11D90819CB96F5F4613F6CF089519
:1005F0001092CC001092D50082E080936600C19AE0
:10060000C29AC39A1092CD008093660028E030E031
:1006100042E010C0E091D901F091DA01E80FF91F32
:100620004083019682179307A9F7285F3F4F28342C
:10063000310519F0C9010897EDCFE091D901F0918A
:10064000DA0181E0838F148E13A284A31092D40068
:100650001EBC84E089BF43E060E087EA90E0BADF37
:100660008091D1008093D2000895BF92CF92DF9203
:10067000EF92FF920F931F93CF93DF9300D000D0A0
:1006800000D0CDB7DEB741E060E08BEA90E0A2DFBA
:1006900011E30F2EFCE7FF2EF02D00E2F9820A8312
:1006A0001B830C8344E060E0CE01019693DF1F5F63
:1006B0001933A1F700E010E00F2EF1E4BF2EF02D6A
:1006C0000F2EFCE7CF2EF02D6894DD24D5F842E004
:1006D00060E08DEA90E07EDFB98241E060E0CE012B
:1006E000019678DF780188E0E80EF11CC982DA8291
:1006F000E091D901F091DA01E00FF11F8081805D76
:100700008B83DC8244E060E0CE01019663DF0F5F03
:100710001F4F0E151F0551F7B394870100341105C3
:10072000B1F642E060E08DEA90E054DF26960FB625
:10073000F894DEBF0FBECDBFDF91CF911F910F9117
:10074000FF90EF90DF90CF90BF90089599B79B7F77
:1007500099BF813051F443E060E080EB90E03ADFF4
:1007600098B382E0892788BB15C081110AC043E095
:1007700060E084EB90E02EDF98B384E0892788BBAB
:1007800009C043E060E088EB90E024DF98B388E0A4
:10079000892788BB1EBC84E089BF0895E091D901F8
:1007A000F091DA01BF01605C7F4F40E090E011C042
:1007B000DF018081811101C09F5F8C91813009F43C
:1007C0004F5F31962E173F0799F7F9012617370724
:1007D00021F09F01285F3F4FEBCF941303C082E0CD
:1007E000B5DF14C0491750F48091D700811103C0C0
:1007F00081E0ACDF0BC080E0A9DF08C08091D700AA
:10080000813011F4A3DF02C080E0A0DF82E080939A
:10081000660008951F920F920FB60F9211242F9326
:100820003F934F935F936F937F938F939F93AF9378
:10083000BF93EF93FF9380916600813019F410927B
:1008400066000EC08091660081110AC043E060E03E
:100850008CEB90E0BFDE81E08093CE008093CC00F3
:10086000FF91EF91BF91AF919F918F917F916F9188
:100870005F914F913F912F910F900FBE0F901F905E
:100880001895B99ABA9ABB9AC19AC29AC39A08950E
:100890008CED9BE09DBD8CBD1FBC8EB584608EBD74
:1008A00084E089BF08952F923F924F925F926F929A
:1008B0007F928F929F92AF92BF92CF92DF92EF92F0
:1008C000FF920F931F93CF93DF93CDB7DEB764975B
:1008D0000FB6F894DEBF0FBECDBF81E080936600F7
:1008E00083E08093D0008093CF0021E030E03A8B0A
:1008F000298B1C8A1B8A812CE6C0E091D901F091DA
:10090000DA016D857E85E60FF71F90818091D70013
:100910009813B9C033243A943B0CE32CF12C898909
:100920009A898E159F050CF4AEC04F8058840F2E07
:10093000FAE0AF2EF02D97E0931508F49BC01FEF5F
:10094000120D812F90E02F813885281739070CF47C
:1009500091C04701880C991C880C991C880C991C23
:10096000632C712CB301660F771F660F771F660F1C
:10097000771F7C876B87032D0B19202F30E03A8778
:100980002987183008F06FC0A091D901B091DA0121
:10099000880D991DFD01E80FF91F20814091D700B6
:1009A00030E081E090E0411180E02817390709F03C
:1009B0005AC0B31420F0B31421F080E003C087E0E4
:1009C00001C08A2DB11620F0211621F050E003C09D
:1009D00057E001C05A2D912F9219C984DA84C80EAC
:1009E000D11C6C147D0409F43EC0212F30E0E92EA7
:1009F000F12CE50EF11C2E153F05A9F16B857C85C8
:100A0000260F371FFD01E20FF31F8081481759F1B0
:100A100080818230A1F0612F832D19C0220F331FF6
:100A2000220F331F220F331FE20FF31FEA0FFB1FAA
:100A300020814217C1F02081223049F402C0612F89
:100A4000832D71E07093D50020E022DB0CC0690F8C
:100A5000800F282F30E02C153D0529F0E62FF0E01F
:100A6000EE15FF05D9F61F5F812F90E04816590655
:100A70000CF087CF3394E32CF12C8F8598898E1559
:100A80009F050CF058CF23942D853E852F5F3F4F57
:100A90003E872D876F8178856F5F7F4F78876F8363
:100AA00078E027122ACF8B2C83948B899C89089617
:100AB0009C8B8B8B29893A892F5F3F4F3A8B298BEF
:100AC0008034910581F06B897C897E876D8781E018
:100AD00090E098878F83312C29893A89388B2F872A
:100AE000232CB82C0ACF8091D500882309F448C064
:100AF00021E04091D7006091CF008091D000C8DA0A
:100B00008DE489838A8380E28B838091D0008F5B20
:100B10008C838091CF008F5C8D838DE08E83A5DDEB
:100B200046E060E0CE01019655DD8091D500882336
:100B300039F18FE19EE40197F1F700C00000809148
:100B4000D500823021F080916600823091F71092BA
:100B5000D5008091D20090E0FC01E752FF4F208148
:100B60002F3419F7FC01E752FF4F81818B34E9F6EE
:100B70008FDE8091D1008093D200109266000BC06E
:100B80008091D400813011F409DE05C043E060E0BB
:100B900080EC90E01FDD64960FB6F894DEBF0FBEC8
:100BA000CDBFDF91CF911F910F91FF90EF90DF901C
:100BB000CF90BF90AF909F908F907F906F905F90FD
:100BC0004F903F902F9008959C019091D2004091BA
:100BD000D300F901E90FF11D8081841303C09F5FE9
:100BE0009093D2008091CC00813021F482E08093F8
:100BF000CC0008958091D500813021F482E080936B
:100C0000D5000895B9019091D200292F30E0FB0161
:100C1000E20FF31F9081913499F4FB01E20FF31F6F
:100C20009181943509F008C1FB01E20FF31F828125
:100C3000481302C143E060E087EA90E0CBDCFCC0EF
:100C4000923581F4FB01E20FF31F9181933509F096
:100C5000F3C0FB01E20FF31F8281843509F0ECC081
:100C6000C7DCEAC09335D9F4FB01E20FF31F918191
:100C7000903509F064C0FB01E20FF31F83818234D9
:100C800019F41092D70005C0873519F481E08093DC
:100C9000D70043E060E087EA90E09CDCCDC09E3462
:100CA000D1F5FB01E20FF31F8181873409F0C4C045
:100CB0001092D50028E030E042E010C0E091D90168
:100CC000F091DA01E80FF91F40830196821793072C
:100CD000A9F7285F3F4F2834310519F0C90108975B
:100CE000EDCFE091D901F091DA0181E0838F148E8C
:100CF00013A284A38091D700811109C081E0809361
:100D0000660043E060E087EA90E064DC95C070DC58
:100D10001092660091C0953431F5FB01E20FF31F8C
:100D20008181873409F088C043E060E087EA90E081
:100D300051DC8091D1008093D20030DD7DC0FB0179
:100D4000E20FF31F8181843509F076C0FB01E20FC9
:100D5000F31F838180538093DB0143E060E087EAE7
:100D600090E038DC69C09D3409F041C0FB01E20F1E
:100D7000F31F8181863509F05FC0F9013396E60FD4
:100D8000F71F80818154883008F056C02C5F3F4F98
:100D9000DB01A20FB31F8C918153883008F04CC047
:100DA0001092D40041E08091D700811140E06C9115
:100DB0006153808121E081546BD9813051F443E04B
:100DC00060E087EA90E006DC63DD81E08093660006
:100DD00033C043E060E084EC90E0FCDB81E0809392
:100DE000CC0082E0809366001092CD0025C0903543
:100DF00089F4FB01E20FF31F81818335E9F481E07F
:100E0000809366008093D40043E060E087EA90E03E
:100E1000E1DB12C0973581F4FB01E20FF31F818102
:100E20008E3451F481E092DC82E08093660043E0EE
:100E300060E087EA90E0CEDB8091D1008F5F809305
:100E4000D20008951F920F920FB60F9211242F9384
:100E50003F934F935F936F937F938F939F93AF9342
:100E6000BF93EF93FF938CB1E091D100F0E0E75294
:100E7000FF4F80835D9BFECF8CB9E091D100F0E005
:100E8000E752FF4F90818091D300981303C089ED02
:100E900090E09ADE8091D1008F5F8093D100FF9126
:100EA000EF91BF91AF919F918F917F916F915F91E2
:100EB0004F913F912F910F900FBE0F901F9018955B
:100EC00010BC83E389B980B58F7E80BD80B58F7DEE
:100ED00080BD80B5877F80BD86E880BD52988AB18D
:100EE00088618AB9569A579A0895CF93DF9300D0B4
:100EF0001F92CDB7DEB7CBD8E3DFC3DC8DE090E047
:100F00009093D4008093D300C19AC29AC39A80E48C
:100F100090E0B2D09093DA018093D9011A821982BD
:100F20001B821A82198289819A81089734F522E0FE
:100F30001B828B818830C0F489819A813B81880F24
:100F4000991F880F991F880F991F830F911DE0919A
:100F5000D901F091DA01E80FF91F20838B818F5FAF
:100F60008B838B81883040F389819A8101969A83A3
:100F7000898389819A810897DCF2E091D901F09107
:100F8000DA0181E0838F148E13A284A31092D20021
:100F90001092D1001092CE001092CC001092D50089
:100FA00092E0909366008093D700789412E080914D
:100FB000CC00882309F445C08FE19EE40197F1F746
:100FC00000C000008091CC008230E1F71092CC008C
:100FD0008091D20090E0FC01E752FF4F20812F3436
:100FE00071F4FC01E752FF4F81818B3431F5809120
:100FF000D1008093D20081E0A9DB1093660080913C
:10100000D20090E0FC01E752FF4F20812035A9F487
:10101000FC01E752FF4F81818C3479F48091CE003E
:10102000813021F41092CE0033DC07C043E060E051
:1010300088EC90E0CFDA109366008091D100809325
:10104000D2008091660081110AC08091CD0081118B
:1010500006C081E08093CD001BDC10926600809179
:101060006600813009F0A3CF1092CD0011DC81E041
:101070008093660018DC9BCF0F931F93CF93DF9371
:101080008230910510F482E090E0E091DE01F09171
:10109000DF0120E030E0A0E0B0E0309719F14081BE
:1010A00051810281138148175907C8F084179507A9
:1010B00069F4109731F012960C93129713961C93C3
:1010C00027C00093DE011093DF0122C021153105F6
:1010D00019F04217530718F49A01BD01EF01DF011F
:1010E000F801DBCF21153105F9F0281B390B24302D
:1010F000310580F48A819B816115710521F0FB0126
:101100009383828304C09093DF018093DE01FE010C
:10111000329644C0FE01E20FF31F81939193225057
:101120003109398328833AC02091DC013091DD01F7
:10113000232B41F420916200309163003093DD0154
:101140002093DC0120916000309161002115310570
:1011500041F42DB73EB74091640050916500241BC7
:10116000350BE091DC01F091DD01E217F307A0F40B
:101170002E1B3F0B2817390778F0AC014E5F5F4FED
:101180002417350748F04E0F5F1F5093DD01409341
:10119000DC018193919302C0E0E0F0E0CF01DF91A8
:1011A000CF911F910F910895CF93DF93009709F48A
:1011B00081C0FC01329713821282A091DE01B091AE
:1011C000DF01109781F420813181820F931F2091DC
:1011D000DC013091DD012817390751F5F093DD016D
:1011E000E093DC0167C0ED0120E030E0CE17DF07BF
:1011F00040F44A815B819E0141155105F1F0EA01FD
:10120000F5CFD383C28340815181840F951FC817C6
:10121000D90759F488819981840F951F029691838B
:1012200080838A819B81938382832115310529F4F0
:10123000F093DF01E093DE013DC0E901FB83EA8327
:1012400049915991C40FD51FEC17FD0761F48081B6
:101250009181840F951F0296E90199838883828189
:1012600093819B838A83E0E0F0E012968D919C91BC
:101270001397009719F0FD01DC01F7CF8D919C9138
:1012800011979D012E5F3F4F820F931F2091DC012C
:101290003091DD012817390769F4309729F410924D
:1012A000DF011092DE0102C013821282B093DD01D1
:0E12B000A093DC01DF91CF910895F894FFCF59
:1012BE000000E001200002120B101010100B120B98
:1012CE000A0D0D0D0D0A0B100D0F0E0E0F0D101039
:1012DE000D0E0F0F0E0D10100D0E0F0F0E0D101018
:1012EE000D0F0E0E0F0D100B0A0D0D0D0D0A0B121C
:1012FE000B101010100B124F4B0D0020000A0D009A
:10130E00574E0D004C530D0054450D0049540D0021
:0C131E004D500D00494C0D0051540D00C5
:00000001FF
