:1000000029C0000042C0000040C000003EC0000007
:100010003CC000003AC0000038C0000036C00000FC
:10002000FDC1000032C0000030C0000098C40000D4
:100030002CC00000D4C1000028C0000026C0000071
:1000400024C0000022C0000020C000001EC000002C
:100050001CC0000011241FBECFE5D4E0DEBFCDBF21
:1000600010E0A0E6B0E0E0E2FCE002C005900D92F6
:10007000A638B107D9F721E0A6E8B0E001C01D928B
:10008000A639B207E1F7A8D2C9C5BACF08959C0135
:10009000641750F45D9BFECFF901E60FF11D9081CE
:1000A0009CB96F5F4613F6CF08952F923F924F92FF
:1000B0005F926F927F928F929F92AF92BF92CF92F8
:1000C000DF92EF92FF920F931F93CF93DF93CDB701
:1000D000DEB769970FB6F894DEBF0FBECDBF209193
:1000E0008800FC01E20FF11D13812FEB210F2C83FF
:1000F00034813E8B31533E878FEE810F898341E0FF
:1001000060E0CE010196C3DF8E8981508A8341E091
:1001100060E0CE010296BBDF0F2EFEEB8F2EF02D9E
:10012000810E282C312C4C81842F90E0FC013196DB
:10013000F88FEF8BE215F3050CF42DC120E0FE855E
:100140008F2F90E0AC014F5F5F4F5E834D8381E462
:10015000811B898F81E35E89851B8D8781E08F8775
:1001600091E0998B1A8A1B8A1C8A188A8B824E8886
:10017000EEEC4E0EE42DF0E04D815E814E175F07F0
:100180000CF4FDC0220C331C220C331C220C331C3B
:100190009B81892F90E098878F83880F991F880F04
:1001A000991F880F991F9C878B87598C3B81530E11
:1001B000452D50E05A8749873D8B60918F017091A2
:1001C0009001E20DF31DE60FF71F8081AA24A3948E
:1001D00090918D009111A12CAA2DB0E090E08A178A
:1001E0009B0709F4C3C08081823009F4BFC05C81E1
:1001F0008B81581720F0581304C0CD8806C0C12C3D
:1002000004C00F2EF7E0CF2EF02D9C81941528F01E
:10021000EE85E41104C0B42C06C0B12C04C00F2E2E
:10022000F7E0BF2EF02DDD84D40CE984FA84EC0CC9
:10023000F11C4F8158854E155F0509F497C0642C59
:10024000712C0D2D10E00B0D111D6016710609F4B7
:100250008DC08B859C85680E791E4B01860C971C82
:10026000F4018081823009F481C0808190E0A81778
:10027000B90709F496C0542D4B8114C0880F991FFB
:10028000880F991F880F991FE80FF91FE60FF71FB6
:100290008081823009F46AC0808190E0A817B90794
:1002A00009F47FC05D0D450D842F90E08E159F05EC
:1002B00009F45CC0E52FF0E0E017F107F9F656C04D
:1002C000B41409F44CC0F401A08280918F01909184
:1002D0009001FC01E60DF71D208130E081E090E007
:1002E00040918D00411180E028173907D1F1542D3C
:1002F0004B81AF85088969897A89BB891C8927C0A8
:10030000852F90E0F8E04F9F800D911D1124E09122
:100310008F01F0919001E80FF91F2A2F30918D0085
:100320003111202F208320918F0130919001F9010C
:10033000E80FF91F208130E0862F972FE0918D0084
:10034000EE2311F08B2F912F2817390761F05D0DE7
:10035000450DC41651F0B512D3CF21E007C021E0FE
:1003600005C021E003C021E001C021E04394E42D59
:10037000F0E04D815E814E175F070CF01ECF5B8170
:100380005F5F5B83252E312C8F89988D82159305B5
:100390000CF0EDCE01C020E081E0213039F080E0AA
:1003A00005C09B81C9128CCF21E0E0CF69960FB6C2
:1003B000F894DEBF0FBECDBFDF91CF911F910F919B
:1003C000FF90EF90DF90CF90BF90AF909F908F9075
:1003D0007F906F905F904F903F902F9008951F9265
:1003E0000F920FB60F9211240F900FBE0F901F9017
:1003F000189510BC83E389B980B58F7E80BD80B528
:100400008F7D80BD80B5877F80BD86E880BD529896
:100410008AB188618AB9569A579A08951F920F92A5
:100420000FB60F9211242F933F934F935F936F93C7
:100430007F938F939F93AF93BF93EF93FF9380919D
:100440006600813019F4109266000CC0809166003D
:10045000811108C043E060E08BE690E018DE81E0A7
:1004600080938600FF91EF91BF91AF919F918F9103
:100470007F916F915F914F913F912F910F900FBEA0
:100480000F901F90189599B79B7F99BF813051F4B9
:1004900043E060E08FE690E0FADD98B382E08927E0
:1004A00088BB089581110AC043E060E083E790E0D3
:1004B000EEDD98B384E0892788BB089543E060E0CF
:1004C00087E790E0E4DD98B388E0892788BB08954A
:1004D000E0918F01F0919001BF01605C7F4F40E09F
:1004E00090E011C0DF018081811101C09F5F8C917C
:1004F000813009F44F5F31962E173F0799F7F901C4
:100500002617370721F09F01285F3F4FEBCF941349
:1005100003C082E0B8DF14C0491750F480918D0009
:10052000811103C081E0AFDF0BC080E0ACDF08C009
:1005300080918D00813011F4A6DF02C080E0A3DF3E
:1005400082E0809366000895B99ABA9ABB9AC19ADC
:10055000C29AC39A08958CED9BE09DBD8CBD1FBCD3
:100560008EB584608EBD84E089BF089581E080935C
:100570006600809166008111FCCF46E060E08BE769
:1005800090E085DD81E080938B0080918B00882353
:10059000F1F38FE19EE40197F1F700C00000809134
:1005A0008B008230B1F710928B008091880090E030
:1005B000FC01E157FF4F20812F3439F7FC01E1574F
:1005C000FF4F81818B3409F7C6DF809187008093CC
:1005D0008800109266000895CF93DF9300D0CDB7C6
:1005E000DEB754DD06DFB0DF8DE090E090938A0047
:1005F00080938900C19AC29AC39A80E490E0EDD1B9
:100600009093900180938F0119821A8219828981B7
:10061000883000F522E01A828A818830A8F4398176
:100620008A8190E048E0349F800D911D1124E09173
:100630008F01F0919001E80FF91F20838A818F5F6D
:100640008A838A81883058F389818F5F8983898181
:10065000883008F3E0918F01F091900181E0838F61
:10066000148E13A284A31092880010928700109217
:10067000860010928B0092E09093660080938D002C
:10068000789400E06894FF24F1F8102F80918600A0
:100690008823D1F18FE19EE40197F1F700C00000BB
:1006A000809186008230E1F7009386008091880077
:1006B00090E0FC01E157FF4F20812F3471F4FC01E1
:1006C000E157FF4F81818B34D9F48091870080936B
:1006D000880081E0D8DEF09266008091880090E08A
:1006E000FC01E157FF4F2081203551F4FC01E15717
:1006F000FF4F81818C3421F4802FC5DEF09266009B
:10070000809187008093880080916600811104C0E9
:10071000111102C020DF11E080916600813009F0E4
:10072000B5CF19DF81E08093660020DFAECF9C015A
:100730009091880040918900F901E90FF11D8081B5
:10074000841303C09F5F909388008091860081305E
:1007500021F482E080938600089580918B0081309F
:1007600021F482E080938B000895B9019091880074
:10077000292F30E0FB01E20FF31F9081913499F4AF
:10078000FB01E20FF31F9181943509F0E2C0FB01F8
:10079000E20FF31F82814813DCC043E060E087E68C
:1007A00090E075DCD6C0923509F5FB01E20FF31F2E
:1007B0009181933509F0CDC0FB01E20FF31F8281D7
:1007C000843509F0C6C01092860010928B0082E03A
:1007D0008093660081E080938D00C19AC29AC39A8B
:1007E00043E060E087E690E052DCB3C09335D9F493
:1007F000FB01E20FF31F9181903509F041C0FB012D
:10080000E20FF31F8381823419F410928D0005C02A
:10081000873519F481E080938D0043E060E087E63E
:1008200090E035DC96C09E34B9F4FB01E20FF31F73
:100830008181873409F08DC080918D00811104C0C1
:1008400081E08093660002C01092660043E060E0A1
:1008500087E690E01CDC7DC0953431F5FB01E20FAA
:10086000F31F8181873409F074C043E060E087E6BC
:1008700090E00DDC809187008093880029DE69C0BC
:10088000FB01E20FF31F8181843509F062C0FB0197
:10089000E20FF31F838180538093910143E060E076
:1008A00087E690E0F4DB55C09D3471F5FB01E20F63
:1008B000F31F8181863509F04CC0FB01E20FF31F65
:1008C00083818154883008F044C0FB01E20FF31F9C
:1008D00084818153883008F03CC0CB01E6DB813055
:1008E00051F443E060E087E690E0D1DB34DE81E064
:1008F000809366002EC043E060E082E890E0C7DBB2
:1009000081E08093860025C0903589F4FB01E20FD9
:10091000F31F81818335E9F481E080936600809341
:100920008A0043E060E087E690E0B1DB12C09735D3
:1009300081F4FB01E20FF31F81818E3451F481E0D9
:10094000A2DD82E08093660043E060E087E690E00D
:100950009EDB809187008F5F8093880008951F92AF
:100960000F920FB60F9211242F933F934F935F93E3
:100970006F937F938F939F93AF93BF93EF93FF9367
:100980008CB1E0918700F0E0E157FF4F80835D9BE1
:10099000FECF8CB9E0918700F0E0E157FF4F9081E6
:1009A00080918900981303C08FE890E0C0DE8091A9
:1009B00087008F5F80938700FF91EF91BF91AF9188
:1009C0009F918F917F916F915F914F913F912F9167
:1009D0000F900FBE0F901F9018950F931F93CF93FA
:1009E000DF938230910510F482E090E0E091940171
:1009F000F091950120E030E0A0E0B0E0309719F1EF
:100A0000408151810281138148175907C8F084172A
:100A1000950769F4109731F012960C93129713967C
:100A20001C9327C0009394011093950122C02115B7
:100A3000310519F04217530718F49A01BD01EF016F
:100A4000DF01F801DBCF21153105F9F0281B390B47
:100A50002430310580F48A819B816115710521F074
:100A6000FB019383828304C090939501809394014A
:100A7000FE01329644C0FE01E20FF31F8193919371
:100A800022503109398328833AC020919201309154
:100A90009301232B41F42091620030916300309345
:100AA0009301209392012091600030916100211503
:100AB000310541F42DB73EB7409164005091650077
:100AC000241B350BE0919201F0919301E217F3079B
:100AD000A0F42E1B3F0B2817390778F0AC014E5FAE
:100AE0005F4F2417350748F04E0F5F1F5093930157
:100AF000409392018193919302C0E0E0F0E0CF0136
:100B0000DF91CF911F910F910895CF93DF930097BD
:100B100009F481C0FC01329713821282A0919401E2
:100B2000B0919501109781F420813181820F931F3C
:100B300020919201309193012817390751F5F093D4
:100B40009301E093920167C0ED0120E030E0CE1701
:100B5000DF0740F44A815B819E0141155105F1F0A8
:100B6000EA01F5CFD383C28340815181840F951F61
:100B7000C817D90759F488819981840F951F029667
:100B8000918380838A819B819383828321153105A0
:100B900029F4F0939501E09394013DC0E901FB83B2
:100BA000EA8349915991C40FD51FEC17FD0761F4F1
:100BB00080819181840F951F0296E9019983888332
:100BC000828193819B838A83E0E0F0E012968D918D
:100BD0009C911397009719F0FD01DC01F7CF8D91DF
:100BE0009C9111979D012E5F3F4F820F931F209183
:100BF0009201309193012817390769F4309729F44D
:100C0000109295011092940102C013821282B09347
:100C10009301A0939201DF91CF910895F894FFCFB3
:100C2000000096012000024F4B0D0049540D005763
:100C30004E0D004C530D0054450D004D4D204732D4
:060C40000D00494C0D00FF
:00000001FF
