:1000000029C0000043C0000041C000003FC0000004
:100010003DC000003BC0000039C0000037C00000F8
:10002000FAC2000033C0000031C0000048C6000022
:100030002DC00000C6C1000029C0000027C000007C
:1000400025C0000023C0000021C000001FC0000028
:100050001DC0000011241FBECFE5D4E0DEBFCDBF20
:1000600010E0A0E6B0E0E4E2F1E102C005900D92FC
:10007000AC38B107D9F721E0ACE8B0E001C01D927F
:10008000AE39B207E1F76ED60C949008B9CF089557
:100090002F923F924F925F926F927F928F929F9298
:1000A000AF92BF92CF92DF92EF92FF920F931F9386
:1000B000CF93DF93CDB7DEB72C970FB6F894DEBFA2
:1000C0000FBECDBFB62E682E712C93012150310981
:1000D0003A83298323012FEF421A520A29813A8158
:1000E000421653060CF44EC1262E312C9301220FDA
:1000F000331F220F331F220F331FB901620D731DEF
:10010000798768871D829101215031093F832E83B1
:1001100041013FEF831A930A0F2EF7E0AF2EF02D27
:100120003B862A86382EBC86B42E89819A819923F3
:100130000CF41CC189819A8108970CF017C16E815B
:100140007F817C836B838B819C81881699060CF45C
:100150000DC12C848B819C8199230CF4FCC08B8174
:100160009C8108970CF0F7C040919701509198013D
:10017000E981FA818B819C81EE0FFF1FEE0FFF1F3B
:10018000EE0FFF1FE80FF91FE40FF51F80818B159D
:1001900009F4E1C0E981FA818B819C81EE0FFF1F98
:1001A000EE0FFF1FEE0FFF1FE80FF91FE40FF51F03
:1001B0008081823009F4CFC089819A8168167906DE
:1001C0003CF089819A816816790621F0F12C06C0ED
:1001D000FA2C04C00F2EF9E0FF2EF02D8B819C81AC
:1001E000681679064CF08B819C812A853B852817FF
:1001F000390721F0E12C06C0EA2C04C00F2EF9E0EB
:10020000EF2EF02D89819A81182F13198B819C81F3
:10021000082F021929813A81A22F8B819C81B82F46
:100220003327C12ED12CCF0CD11C2C153D0509F440
:1002300092C09927602F70E06E0D711D8617970789
:1002400009F489C0220F331F220F331F220F331FDF
:10025000820F931FFA01E80FF91F8081823009F4A1
:100260007AC08081B81222C011C0880F991F880FF0
:10027000991F880F991FE80FF91FE40FF51F808160
:10028000823009F468C08081B81210C0E885F98511
:10029000E40FF51FB08289819A81482F2B813C8120
:1002A000522FF81211C031E03D8355C0B00FA10F9D
:1002B0008A2F90E08C159D0509F44DC0EB2FF0E0DE
:1002C000E617F70791F647C0E216A1F19927880FC4
:1002D000991F880F991F880F991F820F911D2091D8
:1002E000970130919801F901E80FF91F8081823060
:1002F00021F18081B81214C023C0E52FF0E068E03E
:10030000469FE00DF11D1124809197019091980175
:10031000E80FF91F80818230B1F08081B816B1F00A
:10032000B082500F410FF416A1F0E512E6CF71E054
:100330007D8311C081E08D830EC091E09D830BC051
:1003400021E02D8308C031E03D8305C061E06D836D
:1003500002C071E07D838B819C8101969C838B839D
:100360008B819C81881699060CF0F4CE89819A8144
:1003700001969A83898389819A81481659060CF0DF
:10038000D4CE01C01D8281E09D81913009F080E0D2
:100390002C960FB6F894DEBF0FBECDBFDF91CF9184
:1003A0001F910F91FF90EF90DF90CF90BF90AF9093
:1003B0009F908F907F906F905F904F903F902F9085
:1003C00008951F920F920FB60F9211240F900FBE37
:1003D0000F901F9018959C01641750F45D9BFECF01
:1003E000F901E60FF11D90819CB96F5F4613F6CFBE
:1003F000089510928C001092930082E08093660022
:10040000C19AC29AC39A10928D008093660028E028
:1004100030E042E010C0E0919701F0919801E80FC0
:10042000F91F4083019682179307A9F7285F3F4F72
:100430002834310519F0C9010897EDCFE0919701F3
:10044000F091980181E0838F148E13A284A31092FF
:1004500092001EBC84E089BF43E060E087E690E044
:10046000BADF80918F00809390000895BF92CF9261
:10047000DF92EF92FF920F931F93CF93DF9300D001
:1004800000D000D0CDB7DEB741E060E08BE690E071
:10049000A2DF11E30F2EFCE7FF2EF02D00E2F98220
:1004A0000A831B830C8344E060E0CE01019693DF56
:1004B0001F5F1933A1F700E010E00F2EF1E4BF2E0B
:1004C000F02D0F2EFCE7CF2EF02D6894DD24D5F80B
:1004D00042E060E08DE690E07EDFB98241E060E0DE
:1004E000CE01019678DF780188E0E80EF11CC98220
:1004F000DA82E0919701F0919801E00FF11F80817D
:10050000805D8B83DC8244E060E0CE01019663DF96
:100510000F5F1F4F0E151F0551F7B394870100346D
:100520001105B1F642E060E08DE690E054DF2696DA
:100530000FB6F894DEBF0FBECDBFDF91CF911F91F4
:100540000F91FF90EF90DF90CF90BF90089599B7F3
:100550009B7F99BF813051F443E060E080E790E0F9
:100560003ADF98B382E0892788BB15C081110AC0A1
:1005700043E060E084E790E02EDF98B384E08927D1
:1005800088BB09C043E060E088E790E024DF98B3CF
:1005900088E0892788BB1EBC84E089BF0895E0916C
:1005A0009701F0919801BF01605C7F4F40E090E0BF
:1005B00011C0DF018081811101C09F5F8C9181306A
:1005C00009F44F5F31962E173F0799F7F901261767
:1005D000370721F09F01285F3F4FEBCF941303C0F3
:1005E00082E0B5DF14C0491750F480919500811165
:1005F00003C081E0ACDF0BC080E0A9DF08C08091C0
:100600009500813011F4A3DF02C080E0A0DF82E01A
:100610008093660008951F920F920FB60F921124D7
:100620002F933F934F935F936F937F938F939F93FA
:10063000AF93BF93EF93FF9380916600813019F4DD
:10064000109266000EC08091660081110AC043E0DE
:1006500060E08CE790E0BFDE81E080938E008093C5
:100660008C00FF91EF91BF91AF919F918F917F91FE
:100670006F915F914F913F912F910F900FBE0F900F
:100680001F901895B99ABA9ABB9AC19AC29AC39AFE
:1006900008958CED9BE09DBD8CBD1FBC8EB5846024
:1006A0008EBD84E089BF08952F923F924F925F9252
:1006B0006F927F928F929F92AF92BF92CF92DF9272
:1006C000EF92FF920F931F93CF93DF93CDB7DEB7D7
:1006D00069970FB6F894DEBF0FBECDBF81E080935F
:1006E000660021E030E03C8B2B8B1E8A1D8A412C5A
:1006F0004F8A49C1E0919701F091980189899A89BF
:10070000E80FF91F908180919500981318C1222459
:100710002A94230CC22CD12CEB89FC89EC15FD0505
:100720000CF40DC14D845E84F7E0F21508F4FEC0B0
:1007300099249A94980C892D90E02D853E85281750
:1007400039070CF4EFC03601660C771C660C771C79
:10075000660C771CE22DF0E0F887EF83EE0FFF1FA9
:10076000EE0FFF1FEE0FFF1FFC87EB87C22CC31895
:100770002C2D30E03A87298737E0391508F4CBC0B3
:100780006091970170919801860D971DFB01E80F0C
:10079000F91F20814091950030E081E090E0411107
:1007A00080E02817390709F0B6C0321420F032145F
:1007B00039F0E12C09C00F2EF7E0EF2EF02D04C028
:1007C0000F2EFAE0EF2EF02D391420F0891439F0B5
:1007D000D12C09C00F2EF7E0DF2EF02D04C00F2E14
:1007E000FAE0DF2EF02DF92CF818A985BA85AE0DA8
:1007F000B11D8F8198858A179B0709F48CC0892DBC
:1008000090E0EF2DF0E09F012D0D311D398F288FE5
:100810008217930709F47FC0AB84BC84A80EB91E6D
:10082000CB018A0D9B1DFC012081421709F473C086
:1008300080818230B1F0092D122D26C0880F991FBA
:10084000880F991F880F991F820F931F860F971F7C
:10085000FC012081421709F45EC080818230A1F43E
:1008600002C0092D122D602F812F12DCFDE4F983C7
:10087000FA8320E22B831F5B1C830F5C0D833DE01A
:100880003E83E21011C03AC00F0D1C0D812F90E085
:100890008A179B0709F43FC0202F30E0E88DF98DBF
:1008A0002E173F0759F637C0D91441F180919701AF
:1008B00090919801FC01EA0DFB1D908180919500BB
:1008C0009817E1F0392D222D12C0E32FF0E088E0D7
:1008D000289FE00DF11D11248091970190919801BE
:1008E000E80FF91F908180919500981739F0808367
:1008F0003F0D2C0DE21611F0D312E7CF91E090934B
:100900009300B4DD46E060E0CE01019664DD8091A5
:100910009300811148C09394892D90E048165906A0
:100920000CF02ACF8091930081113DC02394C22CFA
:10093000D12CEF85F889EC15FD050CF0F5CE8091F2
:100940009300811130C0839429893A892F5F3F4FEA
:100950003A8B298B8D859E8501969E878D8798E0A1
:100960008912C8CEEF89EF5FEF8B2D893E89285F12
:100970003F4F3E8B2D8B8B899C8901969C8B8B8B5B
:100980002034310581F0ED89FE89FA8BE98B21E075
:1009900030E03E872D87312C8B899C89988B8F87FF
:1009A000832C3F88A7CE80919300882339F1EFE113
:1009B000FEE43197F1F700C000008091930082308F
:1009C00021F080916600823091F71092930080911F
:1009D000900090E0FC01E956FF4F20812F3419F779
:1009E000FC01E956FF4F81818B34E9F652DE80919C
:1009F0008F0080939000109266000BC0809192004F
:100A0000813011F4CCDD05C043E060E080E890E087
:100A1000E2DC69960FB6F894DEBF0FBECDBFDF9162
:100A2000CF911F910F91FF90EF90DF90CF90BF90EB
:100A3000AF909F908F907F906F905F904F903F907E
:100A40002F9008959C019091900040919100F901A0
:100A5000E90FF11D8081841303C09F5F9093900084
:100A600080918C00813021F482E080938C00089585
:100A700080919300813021F482E080939300089567
:100A8000B90190919000292F30E0FB01E20FF31F94
:100A90009081913499F4FB01E20FF31F9181943519
:100AA00009F007C1FB01E20FF31F8281481301C166
:100AB00043E060E087E690E08EDCFBC0923581F495
:100AC000FB01E20FF31F9181933509F0F2C0FB01A6
:100AD000E20FF31F8281843509F0EBC08ADCE9C0A4
:100AE0009335D9F4FB01E20FF31F9181903509F0A2
:100AF00064C0FB01E20FF31F8381823419F410926A
:100B0000950005C0873519F481E08093950043E096
:100B100060E087E690E05FDCCCC09E34D1F5FB015D
:100B2000E20FF31F8181873409F0C3C01092930054
:100B300028E030E042E010C0E0919701F091980188
:100B4000E80FF91F4083019682179307A9F7285FE2
:100B50003F4F2834310519F0C9010897EDCFE091D6
:100B60009701F091980181E0838F148E13A284A3E2
:100B700080919500811109C081E08093660043E077
:100B800060E087E690E027DC94C033DC10926600DA
:100B900090C0953431F5FB01E20FF31F818187345A
:100BA00009F087C043E060E087E690E014DC8091C4
:100BB0008F0080939000F3DC7CC0FB01E20FF31FF9
:100BC0008181843509F075C0FB01E20FF31F838139
:100BD00080538093990143E060E087E690E0FBDB7F
:100BE00068C09D3409F040C0FB01E20FF31F818112
:100BF000863509F05EC0F9013396E60FF71F808154
:100C00008154883008F055C02C5F3F4FDB01A20FA4
:100C1000B31F8C918153883008F04BC01092920022
:100C200041E080919500811140E06C916153808199
:100C300081542EDA813051F443E060E087E690E0A1
:100C4000CADB27DD81E08093660033C043E060E0CB
:100C500084E890E0C0DB81E080938C0082E08093A8
:100C6000660010928D0025C0903589F4FB01E20FDB
:100C7000F31F81818335E9F481E0809366008093DE
:100C8000920043E060E087E690E0A5DB12C0973574
:100C900081F4FB01E20FF31F81818E3451F481E076
:100CA00056DC82E08093660043E060E087E690E0F7
:100CB00092DB80918F008F5F8093900008951F9248
:100CC0000F920FB60F9211242F933F934F935F9380
:100CD0006F937F938F939F93AF93BF93EF93FF9304
:100CE0008CB1E0918F00F0E0E956FF4F80835D9B6F
:100CF000FECF8CB9E0918F00F0E0E956FF4F908174
:100D000080919100981303C087E990E09BDE809169
:100D10008F008F5F80938F00FF91EF91BF91AF9114
:100D20009F918F917F916F915F914F913F912F9103
:100D30000F900FBE0F901F90189510BC83E389B9D8
:100D400080B58F7E80BD80B58F7D80BD80B5877F6B
:100D500080BD86E880BD52988AB188618AB9569A6A
:100D6000579A0895CF93DF9300D0CDB7DEB78FD9D0
:100D7000E4DF88DC8DE090E0909392008093910016
:100D8000C19AC29AC39A80E490E0A9D09093980146
:100D90008093970119821A8219828981883000F51F
:100DA00022E01A828A818830A8F439818A8190E011
:100DB00048E0349F800D911D1124E0919701F0913E
:100DC0009801E80FF91F20838A818F5F8A838A81C7
:100DD000883058F389818F5F89838981883008F34F
:100DE000E0919701F091980181E0838F148E13A216
:100DF00084A31092900010928F0010928E00109297
:100E00008C001092930092E090936600809395007E
:100E1000789412E080918C00882309F445C08FE11A
:100E20009EE40197F1F700C0000080918C008230B1
:100E3000E1F710928C008091900090E0FC01E9565F
:100E4000FF4F20812F3471F4FC01E956FF4F81815F
:100E50008B3431F580918F008093900081E077DBB7
:100E6000109366008091900090E0FC01E956FF4FDE
:100E700020812035A9F4FC01E956FF4F81818C3493
:100E800079F480918E00813021F410928E0001DC83
:100E900007C043E060E088E890E09DDA10936600C8
:100EA00080918F00809390008091660081110AC02C
:100EB00080918D00811106C081E080938D00E9DB77
:100EC0001092660080916600813009F0A3CF1092E5
:100ED0008D00DFDB81E080936600E6DB9BCF0F9324
:100EE0001F93CF93DF938230910510F482E090E05E
:100EF000E0919C01F0919D0120E030E0A0E0B0E0A5
:100F0000309719F1408151810281138148175907A7
:100F1000C8F08417950769F4109731F012960C9376
:100F2000129713961C9327C000939C0110939D0168
:100F300022C02115310519F04217530718F49A0100
:100F4000BD01EF01DF01F801DBCF21153105F9F01B
:100F5000281B390B2430310580F48A819B8161156F
:100F6000710521F0FB019383828304C090939D015E
:100F700080939C01FE01329644C0FE01E20FF31FF4
:100F80008193919322503109398328833AC020916B
:100F90009A0130919B01232B41F420916200309102
:100FA000630030939B0120939A012091600030915F
:100FB00061002115310541F42DB73EB74091640021
:100FC00050916500241B350BE0919A01F0919B0133
:100FD000E217F307A0F42E1B3F0B2817390778F010
:100FE000AC014E5F5F4F2417350748F04E0F5F1F6F
:100FF00050939B0140939A018193919302C0E0E04A
:10100000F0E0CF01DF91CF911F910F910895CF9321
:10101000DF93009709F481C0FC013297138212829A
:10102000A0919C01B0919D01109781F420813181A4
:10103000820F931F20919A0130919B012817390745
:1010400051F5F0939B01E0939A0167C0ED0120E018
:1010500030E0CE17DF0740F44A815B819E014115E5
:101060005105F1F0EA01F5CFD383C283408151816C
:10107000840F951FC817D90759F488819981840F67
:10108000951F0296918380838A819B8193838283BB
:101090002115310529F4F0939D01E0939C013DC099
:1010A000E901FB83EA8349915991C40FD51FEC17DD
:1010B000FD0761F480819181840F951F0296E901FB
:1010C00099838883828193819B838A83E0E0F0E027
:1010D00012968D919C911397009719F0FD01DC01F8
:1010E000F7CF8D919C9111979D012E5F3F4F820FFD
:1010F000931F20919A0130919B012817390769F4B9
:10110000309729F410929D0110929C0102C0138225
:101110001282B0939B01A0939A01DF91CF91089521
:04112000F894FFCF71
:1011240000009E012000024F4B0D0020000A0D001C
:10113400574E0D004C530D0054450D0049540D00FD
:0C1144004D500D00494C0D0051540D00A1
:00000001FF
