:1000000029C0000042C0000040C000003EC0000007
:100010003CC000003AC0000038C0000036C00000FC
:100020006CC2000032C0000030C00000A7C6000053
:100030002CC0000043C2000028C0000026C0000001
:1000400024C0000022C0000020C000001EC000002C
:100050001CC0000011241FBECFE5D4E0DEBFCDBF21
:1000600010E0A0E6B0E0EEE3F0E102C005900D92F2
:10007000A038B107D9F721E0A0E8B0E001C01D9297
:10008000A039B207E1F7B7D4D8C7BACF08959C0119
:10009000641750F45D9BFECFF901E60FF11D9081CE
:1000A0009CB96F5F4613F6CF08952F923F924F92FF
:1000B0005F926F927F928F929F92AF92BF92CF92F8
:1000C000DF92EF92FF920F931F93CF93DF93CDB701
:1000D000DEB769970FB6F894DEBF0FBECDBF209193
:1000E0008200FC01E20FF11D93810F2EFFEB4F2EDA
:1000F000F02D490E14810F2EFFEC5F2EF02D510EC6
:1001000090519B8741E060E0CE010B96C0DF1C87D9
:10011000242C312C41012FEF821A920A8401000F06
:10012000111F000F111F000F111F852D90E0988BDC
:100130008F873C019FEF691A790AC801860D971DC8
:10014000E0918901F0918A01E80FF91F808141E077
:1001500060E0CE010C969BDFC10101979A838983F1
:1001600089819A81881699060CF489C10850110971
:100170002F853889200F311F388F2F8B1E8A8F854E
:10018000988901979C8B8B8BA12C91E09D8BA98EDC
:10019000498A5A8A89819A8199230CF464C1898198
:1001A0009A8108970CF05FC12B893C893C832B8393
:1001B0008B819C81681679060CF455C19E868D86CC
:1001C0009D888B819C8199230CF440C18B819C81FB
:1001D00008970CF03BC189819A818F5B8D838B815D
:1001E0009C818F5C8E8330E23F83E981FA818B8131
:1001F0009C81EE0FFF1FEE0FFF1FEE0FFF1FE80F9A
:10020000F91F8091890190918A01E80FF91F80817F
:10021000805D888739878DE08A8746E06A2DCE0128
:10022000059635DF4091890150918A01E981FA8173
:100230008B819C81EE0FFF1FEE0FFF1FEE0FFF1F44
:10024000E80FF91FE40FF51F808144244394909137
:10025000870091114A2CC42CD12C90E08C159D055F
:1002600009F4F4C0E981FA818B819C81EE0FFF1FB4
:10027000EE0FFF1FEE0FFF1FE80FF91FE40FF51F32
:100280008081823009F4E2C089819A81281639067A
:100290003CF089819A812816390639F0BA2C09C0B8
:1002A0000F2EF7E0BF2EF02D04C00F2EF9E0BF2E69
:1002B000F02D8B819C81281639064CF08B819C8116
:1002C0002F8538892817390739F05A2C09C00F2E85
:1002D000F7E05F2EF02D04C00F2EF9E05F2EF02D19
:1002E00089819A81F82E3989F31A8B819C81E82EB5
:1002F0002A89E21A29813A81122F8B819C81082F49
:1003000033276F2D70E06B0D711D2617370709F429
:100310009DC09927AE2DB0E0A50DB11D8A179B0792
:1003200009F494C0220F331F220F331F220F331FF3
:10033000820F931FFA01E80FF91F8081823009F4C0
:1003400085C0808190E0C816D90621F513C0880FBA
:10035000991F880F991F880F991FE80FF91FE40F45
:10036000F51F8081823009F471C0808190E0C81649
:10037000D90681F4EF89F88DE40FF51F4082E981F9
:10038000FA818E2F2B813C81922FBE1211C031E059
:100390003E8B5CC00E0D1F0D812F90E086179707D6
:1003A00009F454C0E02FF0E0EA17FB0781F64EC0D5
:1003B000521609F440C0FF27EE0FFF1FEE0FFF1F7C
:1003C000EE0FFF1FE20FF11D2091890130918A018C
:1003D000E20FF31F208161E03091870031116A2D17
:1003E00030E0462F50E02417350741F1798D19C0D0
:1003F000E92FF0E028E0829FE00DF11D112420910B
:10040000890130918A01E20FF31F2081692D30911B
:1004100087003111672F30E0462F50E02417350751
:1004200081F060839E0D8F0DB81671F05912E0CFE8
:1004300031E03E8B0BC081E08E8B08C091E09E8B3B
:1004400005C021E02E8B02C031E03E8B8B819C8168
:1004500001969C838B838B819C81681679060CF0B6
:10046000B0CE8D849E8489819A8101969A838983F6
:1004700089819A81881699060CF08CCE01C01E8A5B
:1004800081E09E89913009F080E069960FB6F8947A
:10049000DEBF0FBECDBFDF91CF911F910F91FF90B7
:1004A000EF90DF90CF90BF90AF909F908F907F9014
:1004B0006F905F904F903F902F9008951F920F92F2
:1004C0000FB60F9211240F900FBE0F901F9018952A
:1004D00010BC83E389B980B58F7E80BD80B58F7DE8
:1004E00080BD80B5877F80BD86E880BD52988AB187
:1004F00088618AB9569A579A08951F920F920FB63B
:100500000F9211242F933F934F935F936F937F9399
:100510008F939F93AF93BF93EF93FF938091660068
:10052000813019F4109266000CC080916600811130
:1005300008C043E060E08BE690E0A9DD81E08093B5
:100540008000FF91EF91BF91AF919F918F917F912B
:100550006F915F914F913F912F910F900FBE0F9030
:100560001F90189599B79B7F99BF813051F443E054
:1005700060E08FE690E08BDD98B382E0892788BB4E
:10058000089581110AC043E060E083E790E07FDDD9
:1005900098B384E0892788BB089543E060E087E74B
:1005A00090E075DD98B388E0892788BB0895E091D5
:1005B0008901F0918A01BF01605C7F4F40E090E0CB
:1005C00011C0DF018081811101C09F5F8C9181305A
:1005D00009F44F5F31962E173F0799F7F901261757
:1005E000370721F09F01285F3F4FEBCF941303C0E3
:1005F00082E0B8DF14C0491750F480918700811160
:1006000003C081E0AFDF0BC080E0ACDF08C08091A9
:100610008700813011F4A6DF02C080E0A3DF82E012
:10062000809366000895B99ABA9ABB9AC19AC29A01
:10063000C39A08958CED9BE09DBD8CBD1FBC8EB50B
:1006400084608EBD84E089BF08952F923F924F92BF
:100650005F926F927F928F929F92AF92BF92CF9252
:10066000DF92EF92FF920F931F93CF93DF93CDB75B
:10067000DEB769970FB6F894DEBF0FBECDBF81E03D
:1006800080936600198E188E21E030E03E8B2D8B12
:100690001F8A5CC1E0918901F0918A0189899A8958
:1006A000E80FF91F90818091870098132BC12F8844
:1006B0002A94C22CD12C2D893E892C153D050CF491
:1006C00021C14F8458887F880FEF030D802F90E061
:1006D0002F853889281739070CF46EC14601880C1C
:1006E000991C880C991C880C991C222D30E03A87A3
:1006F0002987220F331F220F331F220F331F3E87FC
:100700002D87D22CD7180F2EF1E46F2EF02D620C0E
:100710002D2D30E03C872B87880D991D2091890174
:1007200030918A01F901E80FF91F208130E081E062
:1007300090E040918700411180E02817390709F0C7
:10074000CCC0721420F0721439F0F12C09C00F2EB5
:10075000F7E0FF2EF02D04C00F2EFAE0FF2EF02D53
:10076000701620F0301639F0E12C09C00F2EF7E09A
:10077000EF2EF02D04C00F2EFAE0EF2EF02D102FEB
:10078000131981E48F0D898381E38E0D8A8330E212
:100790003B836C8281E3800F8D838DE08E8346E006
:1007A00060E0CE01019673DC6B857C856F0D711D59
:1007B00029853A852617370709F48FC0A02FB0E0A6
:1007C000412F50E04E0D511DA417B50709F485C007
:1007D000E0918901F0918A018D859E858A0F9B1F8A
:1007E00098878F83DC01AE0FBF1F2C912230B9F0A8
:1007F0008C91A09087008A1509F46FC0B02EC22C8E
:1008000027C0880F991F880F991F880F991FA80F5D
:10081000B91FAE0FBF1F8C918230B1F402C0B02E51
:10082000C22C209187002C939DE499839A8320E227
:100830002B8381E48C0D8C8381E38B0D8D833DE0D4
:100840003E83F21013C03DC08C918A1509F445C057
:10085000B10ECD0C8C2D90E08617970709F43DC0A2
:10086000AB2DB0E0A417B50761F637C0E01649F12B
:100870008091890190918A01AF81B885A80FB91F35
:100880009C91809187009817E1F0302F222D12C0A3
:10089000A32FB0E088E0289FA00DB11D1124809106
:1008A000890190918A01A80FB91F9C9180918700BE
:1008B000981739F08C93310F2D0DF21611F0E312C9
:1008C000E7CF91E09093850046E060E0CE0101968D
:1008D000DEDB80918500811148C00F5F802F90E0A2
:1008E000481659060CF018CF8091850081113DC043
:1008F0002394C22CD12C2B893C892C153D050CF05E
:10090000E3CE04C08091850081112FC03394898982
:100910009A8901969A8B898B2F8538892F5F3F4F53
:10092000388B2F8738E03312B5CE8F898F5F8F8B4E
:100930002D893E892F5F3F4F3E8B2D8B888D998D62
:100940000896998F888F2930310579F0288D398D57
:100950003A8B298B81E090E0988B8F87212C2D8911
:100960003E893C8B2B8B322C95CE80918500882341
:10097000F1F38FE19EE40197F1F700C00000809150
:1009800085008230B1F7109285008091820090E05E
:10099000FC01E757FF4F20812F3439F7FC01E7575F
:1009A000FF4F81818B3409F745DE80918100809370
:1009B00082001092660006C080918500882309F4A9
:1009C00097CFD3CF69960FB6F894DEBF0FBECDBFD9
:1009D000DF91CF911F910F91FF90EF90DF90CF901B
:1009E000BF90AF909F908F907F906F905F904F904F
:1009F0003F902F900895CF93DF9300D0CDB7DEB70F
:100A000045DB66DD10DE8DE090E0909384008093FE
:100A10008300C19AC29AC39A80E490E0EDD190938A
:100A20008A018093890119821A821982898188300A
:100A300000F522E01A828A818830A8F439818A81FF
:100A400090E048E0349F800D911D1124E0918901D0
:100A5000F0918A01E80FF91F20838A818F5F8A83D2
:100A60008A81883058F389818F5F898389818830B2
:100A700008F3E0918901F0918A0181E0838F148E5F
:100A800013A284A310928200109281001092800021
:100A90001092850092E0909366008093870078948E
:100AA00000E06894FF24F1F8102F809180008823E3
:100AB000D1F18FE19EE40197F1F700C00000809131
:100AC00080008230E1F7009380008091820090E006
:100AD000FC01E757FF4F20812F3471F4FC01E757E9
:100AE000FF4F81818B34D9F4809181008093820003
:100AF00081E038DDF09266008091820090E0FC0198
:100B0000E757FF4F2081203551F4FC01E757FF4F95
:100B100081818C3421F4802F25DDF0926600809154
:100B200081008093820080916600811104C01111C0
:100B300002C080DD11E080916600813009F0B5CF00
:100B400079DD81E08093660080DDAECF9C019091DD
:100B5000820040918300F901E90FF11D8081841327
:100B600003C09F5F9093820080918000813021F4C8
:100B700082E080938000089580918500813021F487
:100B800082E0809385000895B90190918200292F19
:100B900030E0FB01E20FF31F9081913499F4FB01E7
:100BA000E20FF31F9181943509F0E2C0FB01E20FDF
:100BB000F31F82814813DCC043E060E087E690E0E9
:100BC00066DAD6C0923509F5FB01E20FF31F918179
:100BD000933509F0CDC0FB01E20FF31F828184350C
:100BE00009F0C6C0109280001092850082E08093C8
:100BF000660081E080938700C19AC29AC39A43E05D
:100C000060E087E690E043DAB3C09335D9F4FB01A6
:100C1000E20FF31F9181903509F041C0FB01E20F13
:100C2000F31F8381823419F41092870005C0873541
:100C300019F481E08093870043E060E087E690E06C
:100C400026DA96C09E34B9F4FB01E20FF31F8181CE
:100C5000873409F08DC080918700811104C081E044
:100C60008093660002C01092660043E060E087E671
:100C700090E00DDA7DC0953431F5FB01E20FF31FF2
:100C80008181873409F074C043E060E087E690E03A
:100C9000FED9809181008093820089DC69C0FB01CC
:100CA000E20FF31F8181843509F062C0FB01E20F7E
:100CB000F31F8381805380938B0143E060E087E6DC
:100CC00090E0E5D955C09D3471F5FB01E20FF31FAB
:100CD0008181863509F04CC0FB01E20FF31F83814F
:100CE0008154883008F044C0FB01E20FF31F848177
:100CF0008153883008F03CC0CB01D7D9813051F402
:100D000043E060E087E690E0C2D994DC81E0809324
:100D100066002EC043E060E08BE790E0B8D981E048
:100D20008093800025C0903589F4FB01E20FF31F0A
:100D300081818335E9F481E08093660080938400AB
:100D400043E060E087E690E0A2D912C0973581F4D5
:100D5000FB01E20FF31F81818E3451F481E002DC4C
:100D600082E08093660043E060E087E690E08FD900
:100D7000809181008F5F8093820008951F920F926F
:100D80000FB60F9211242F933F934F935F936F935E
:100D90007F938F939F93AF93BF93EF93FF938CB108
:100DA000E0918100F0E0E757FF4F80835D9BFECF2D
:100DB0008CB9E0918100F0E0E757FF4F908180917E
:100DC0008300981303C089E890E0C0DE8091810021
:100DD0008F5F80938100FF91EF91BF91AF919F91C1
:100DE0008F917F916F915F914F913F912F910F90D4
:100DF0000FBE0F901F9018950F931F93CF93DF9303
:100E00008230910510F482E090E0E0918E01F09143
:100E10008F0120E030E0A0E0B0E0309719F1408190
:100E200051810281138148175907C8F0841795072B
:100E300069F4109731F012960C93129713961C9345
:100E400027C000938E0110938F0122C02115310518
:100E500019F04217530718F49A01BD01EF01DF01A1
:100E6000F801DBCF21153105F9F0281B390B2430AF
:100E7000310580F48A819B816115710521F0FB01A8
:100E80009383828304C090938F0180938E01FE012F
:100E9000329644C0FE01E20FF31F819391932250DA
:100EA0003109398328833AC020918C0130918D011A
:100EB000232B41F4209162003091630030938D0127
:100EC00020938C0120916000309161002115310543
:100ED00041F42DB73EB74091640050916500241B4A
:100EE000350BE0918C01F0918D01E217F307A0F42E
:100EF0002E1B3F0B2817390778F0AC014E5F5F4F70
:100F00002417350748F04E0F5F1F50938D01409313
:100F10008C018193919302C0E0E0F0E0CF01DF917A
:100F2000CF911F910F910895CF93DF93009709F40C
:100F300081C0FC01329713821282A0918E01B09180
:100F40008F01109781F420813181820F931F2091AE
:100F50008C0130918D012817390751F5F0938D01DF
:100F6000E0938C0167C0ED0120E030E0CE17DF0791
:100F700040F44A815B819E0141155105F1F0EA017F
:100F8000F5CFD383C28340815181840F951FC81749
:100F9000D90759F488819981840F951F029691830E
:100FA00080838A819B81938382832115310529F473
:100FB000F0938F01E0938E013DC0E901FB83EA834A
:100FC00049915991C40FD51FEC17FD0761F4808139
:100FD0009181840F951F0296E9019983888382810C
:100FE00093819B838A83E0E0F0E012968D919C913F
:100FF0001397009719F0FD01DC01F7CF8D919C91BB
:1010000011979D012E5F3F4F820F931F20918C01FE
:1010100030918D012817390769F4309729F410921F
:101020008F0110928E0102C013821282B0938D0143
:0E103000A0938C01DF91CF910895F894FFCF2B
:10103E00000090012000024F4B0D0049540D005747
:10104E004E0D004C530D0054450D00494C0D000043
:00000001FF
