:1000000029C0000044C0000042C0000040C0000001
:100010003EC000003CC000003AC0000038C00000F4
:100020000C946F0834C0000032C000000C94A20B86
:100030002EC000009BC700002AC0000028C000009E
:1000400026C0000024C0000022C0000020C0000024
:100050001EC0000011241FBECFE5D4E0DEBFCDBF1F
:1000600010E0A0E6B0E0EEECFBE102C005900D92DE
:10007000AE3CB107D9F721E0AEECB0E001C01D9273
:10008000AF3EB207E1F70E94F50B0C94E50DB8CF37
:1000900008952F923F924F925F926F927F928F922C
:1000A0009F92AF92BF92CF92DF92EF92FF920F9307
:1000B0001F93CF93DF93CDB7DEB760970FB6F89459
:1000C000DEBF0FBECDBF982E862E2D83262E312C5F
:1000D000682E712C610128E0829FC00CD11C112474
:1000E000DB86CA86DD86CC86E091E701F091E801E7
:1000F000EC0DFD1D8081823008F452C2C3010197CE
:100100009A83898323018FEF481A580A89819A813B
:10011000481659060CF4E1C1C12C188AF101319737
:10012000FF83EE835101FFEFAF1ABF0A98866987FC
:100130008C2C942E89819A8199230CF4BFC18981DA
:100140009A8108970CF0BAC1CE80DF80DC82CB8226
:100150008B819C81A816B9060CF4B0C18B819C815F
:1001600099230CF4A0C18B819C8108970CF09BC152
:100170004091E7015091E801E981FA818B819C81EE
:10018000EE0FFF1FEE0FFF1FEE0FFF1FE80FF91F0F
:10019000E40FF51F8081891509F485C1E981FA8191
:1001A0008B819C81EE0FFF1FEE0FFF1FEE0FFF1FD5
:1001B000E80FF91FE40FF51F8081823008F073C14A
:1001C00089819A81681679063CF089819A8168163E
:1001D000790639F0F12C09C00F2EF7E0FF2EF02D33
:1001E00004C00F2EF9E0FF2EF02D8B819C81281684
:1001F00039063CF08B819C812816390639F0E12CB8
:1002000009C00F2EF7E0EF2EF02D04C00F2EF9E0FD
:10021000EF2EF02DA981BA81D884AD198B819C81F4
:10022000B82F2985B21B89819A81682F2B813C8147
:10023000722FED81EE2341F199270A2F10E00F0D67
:10024000111D8017910709F42EC13327EB2FF0E021
:100250006F01CE0CD11CDF86CE862C153D0509F42E
:1002600022C1880F991F880F991F880F991F820F2D
:10027000931F840F951FFC012081223008F013C1C9
:1002800080819812A4C093C099270A2F10E00F0D07
:10029000111D8017910709F406C13327EB2FF0E0F9
:1002A0006F01CE0CD11CDF86CE862C153D0509F4DE
:1002B000FAC0880F991F880F991F880F991F820F06
:1002C000931F840F951FFC012081223008F0EBC0A2
:1002D0008081981214C068C1880F991F880F991FD8
:1002E000880F991FA80FB91FA40FB51F8C918230DA
:1002F00008F0D9C08C91981609F454C104C02A2F73
:100300003B2FEE85FF85730F620F862F90E08017DD
:10031000910709F4C8C0A72FB0E0AE17BF07E1F6F8
:10032000C2C0E91609F49CC0F901FF27EE0FFF1FB8
:10033000EE0FFF1FEE0FFF1FE60FF11DE40FF51F7D
:100340002081223008F08FC02081921212C08EC00E
:10035000E92FF0E028E0829FE00DF11D1124E40F69
:10036000F51F2081223008F084C02081921609F404
:1003700083C083949B0F8A0FF81609F480C0E9129A
:10038000E7CF81E0888B8FC0880F991F880F991F56
:10039000880F991FA80FB91FA40FB51F8C91823029
:1003A00008F081C08C91981216C0A22FB32FEC8553
:1003B000FD85E40FF51F908289819A81482F6B811A
:1003C0007C81562FF81215C091E0988B6CC02A2FB3
:1003D0003B2FEE85FF85730F620F862F90E080170D
:1003E000910709F460C0A72FB0E0AE17BF0761F610
:1003F0005AC0E61609F446C09927880F991F880F3E
:10040000991F880F991F860F911D2091E701309148
:10041000E801F901E80FF91F80818230B0F5808191
:10042000981214C035C0E52FF0E028E0429FE00D9F
:10043000F11D11248091E7019091E801E80FF91F67
:100440008081823040F58081981641F190825B0F67
:100450004A0FF41631F1E512E6CF81E0888B23C014
:1004600091E0988B20C0E1E0E88B1DC0F1E0F88BB3
:100470001AC021E0288B17C081E0888B14C091E05E
:10048000988B11C0E1E0E88B0EC0F1E0F88B0BC057
:1004900021E0288B08C081E0888B05C091E0988B13
:1004A00002C0E1E0E88B8B819C8101969C838B8369
:1004B0008B819C81A816B9060CF050CE89819A8157
:1004C00001969A83898389819A81481659060CF08E
:1004D00031CEC82C9884898402C0C12C188AFD8131
:1004E000F11158C03091DC00EA85FB85E959FF4FD6
:1004F00020818C2D90E00E96820F911D432F50E0AD
:1005000048175907FCF48091E1008093D100809155
:10051000E5008093D3008091EA018093D20030936C
:10052000E1008091D6008093E5008091DE00809309
:10053000EA01225FC20EC092DC009092D600809247
:10054000DE0028C03091E100432F50E048175907E2
:100550009CF43093D1008091E5008093D30080918A
:10056000EA018093D200225FC20EC092E100909215
:10057000E5008092EA010EC04091D10050E048179A
:10058000590744F4225FC20EC092D1009092D3006A
:100590008092D20081E02889213089F080E00FC06C
:1005A00080E00DC0A22FB32F29813A81822F6B8169
:1005B0007C81962FF212B5CE81E0888B74CF609645
:1005C0000FB6F894DEBF0FBECDBFDF91CF911F9164
:1005D0000F91FF90EF90DF90CF90BF90AF909F90E2
:1005E0008F907F906F905F904F903F902F900895E5
:1005F0002F923F924F925F926F927F928F929F9233
:10060000AF92BF92CF92DF92EF92FF920F931F9320
:10061000CF93DF93CDB7DEB72E970FB6F894DEBF3A
:100620000FBECDBF882E962E2D83282E312CC101D2
:1006300001979A83898331012FEF621A720A8981A7
:100640009A81681679060CF4F0C1462E512CC1012E
:10065000880F991F880F991F880F991FFC01E40DBF
:10066000F51DFB87EA87C12C1E86920121503109B6
:100670003F832E8352013FEFA31AB30A88868C2C46
:100680006987942E89819A8199230CF4BFC189814D
:100690009A8108970CF0BAC14E815F815C834B83CD
:1006A0008B819C81A816B9060CF4B0C18B819C810A
:1006B00099230CF4A0C18B819C8108970CF09BC1FD
:1006C0004091E7015091E801E981FA818B819C8199
:1006D000EE0FFF1FEE0FFF1FEE0FFF1FE80FF91FBA
:1006E000E40FF51F8081891509F485C1E981FA813C
:1006F0008B819C81EE0FFF1FEE0FFF1FEE0FFF1F80
:10070000E80FF91FE40FF51F8081823008F073C1F4
:1007100089819A81281639063CF089819A812816A8
:10072000390639F0F12C09C00F2EF7E0FF2EF02D1D
:1007300004C00F2EF9E0FF2EF02D8B819C8148160E
:1007400059063CF08B819C814816590639F0E12C02
:1007500009C00F2EF7E0EF2EF02D04C00F2EF9E0A8
:10076000EF2EF02DA981BA818885A81B8B819C81F1
:10077000B82FE985BE1B89819A81682F2B813C8126
:10078000722FFD81FF2341F199270A2F10E00F0DF1
:10079000111D8017910709F42EC13327EB2FF0E0CC
:1007A0006F01CE0CD11CDD86CC862C153D0509F4DD
:1007B00022C1880F991F880F991F880F991F820FD8
:1007C000931F840F951FFC012081223008F013C174
:1007D00080819812A4C093C099270A2F10E00F0DB2
:1007E000111D8017910709F406C13327EB2FF0E0A4
:1007F0006F01CE0CD11CDD86CC862C153D0509F48D
:10080000FAC0880F991F880F991F880F991F820FB0
:10081000931F840F951FFC012081223008F0EBC04C
:100820008081981214C064C1880F991F880F991F86
:10083000880F991FA80FB91FA40FB51F8C91823084
:1008400008F0D9C08C91981609F450C104C02A2F21
:100850003B2FEC85FD85730F620F862F90E080178C
:10086000910709F4C8C0A72FB0E0AE17BF07E1F6A3
:10087000C2C0E91609F49CC0F901FF27EE0FFF1F63
:10088000EE0FFF1FEE0FFF1FE60FF11DE40FF51F28
:100890002081223008F08FC02081921212C08EC0B9
:1008A000E92FF0E028E0829FE00DF11D1124E40F14
:1008B000F51F2081223008F084C02081921609F4AF
:1008C00083C083949B0F8A0FF81609F480C0E91245
:1008D000E7CF31E03E878FC0880F991F880F991F9F
:1008E000880F991FA80FB91FA40FB51F8C918230D4
:1008F00008F081C08C91981216C0A22FB32FEA8500
:10090000FB85E40FF51F908289819A81482F6B81C6
:100910007C81562FF81215C041E04E876CC02A2FFB
:100920003B2FEC85FD85730F620F862F90E08017BB
:10093000910709F460C0A72FB0E0AE17BF0761F6BA
:100940005AC0E61609F446C09927880F991F880FE8
:10095000991F880F991F860F911D2091E7013091F3
:10096000E801F901E80FF91F80818230B0F580813C
:10097000981214C035C0E52FF0E088E0489FE00DE4
:10098000F11D11248091E7019091E801E80FF91F12
:100990008081823040F58081981641F190825B0F12
:1009A0004A0FF41631F1E512E6CF91E09E8723C09D
:1009B000E1E0EE8720C0F1E0FE871DC021E02E8738
:1009C0001AC031E03E8717C041E04E8714C051E0A5
:1009D0005E8711C081E08E870EC091E09E870BC0BC
:1009E000E1E0EE8708C0F1E0FE8705C021E02E8738
:1009F00002C031E03E878B819C8101969C838B8372
:100A00008B819C81A816B9060CF050CE89819A8101
:100A100001969A83898389819A81681679060CF0F8
:100A200031CEC82C8884998402C0C12C1E864D8189
:100A3000411156C02091E7013091E801E091E901B0
:100A4000F0E0EE0FFF1FEE0FFF1FEE0FFF1F809174
:100A5000E000E80FF11DE20FF31FE081220C331CD0
:100A6000220C331C220C331CC101890D911DDC01A9
:100A7000A959BF4F6C91F0E04C2D50E0425F5F4FA1
:100A8000460F511D4E175F075CF1F901E80FF91F82
:100A9000625F6C0D6083E091E901F0E0EE0FFF1FF3
:100AA000EE0FFF1FEE0FFF1F2091E000AF01420F7E
:100AB000511DE091E701F091E801E40FF51F20815D
:100AC000233010F022E020838092E9019092E00030
:100AD000FC01E959FF4F8081825FC80EC092DA00A5
:100AE00081E05E85513079F080E00DC0A22FB32FF8
:100AF00029813A81822F6B817C81962FF212B9CEA7
:100B000081E08E8778CF2E960FB6F894DEBF0FBEA9
:100B1000CDBFDF91CF911F910F91FF90EF90DF90AC
:100B2000CF90BF90AF909F908F907F906F905F908D
:100B30004F903F902F9008952F923F924F925F9247
:100B40006F927F928F929F92AF92BF92CF92DF92DD
:100B5000EF92FF920F931F93CF93DF93CDB7DEB742
:100B600061970FB6F894DEBF0FBECDBF81E08093D2
:100B7000660083E08093E9018093E00021E030E0AB
:100B80003D872C871F861E861D82F4C0E091E701F9
:100B9000F091E8014E815F81E40FF51F208130E084
:100BA00081E090E04091E200411180E02817390790
:100BB00009F0C2C04D804A94042D10E08C859D85BB
:100BC000801791070CF4B8C031013B862A8697E064
:100BD000941508F4A6C0DD24DA94D50C8D2D90E090
:100BE0002A853B85281739070CF49BC05801AA0CAD
:100BF000BB1CAA0CBB1CAA0CBB1C842C912CA401F2
:100C0000440F551F440F551F440F551F5C834B83E2
:100C1000C42C5D81C51A2C2D30E03A832983352EF2
:100C200037E03D1508F476C0E090E701F090E80168
:100C30008A0D9B1DF701E80FF91F80819091E2005A
:100C4000891368C0341420F0341421F020E003C06C
:100C500027E001C02AE05D1420F05D1421F030E0AF
:100C600003C037E001C03AE09D2D951949815A81B2
:100C7000420F511D598B488B8416950609F44AC0C2
:100C8000ED2DF0E0A92FB0E0A30FB11DEA17FB078F
:100C900009F440C02B813C81E20FF31FEE0DFF1DD4
:100CA000208171E0811170E0072F10E030E0201703
:100CB000310781F180818230B1F06D2D842D1CC00F
:100CC000220F331F220F331F220F331FE20FF31F98
:100CD000EE0DFF1D208130E020173107D9F0208173
:100CE000223051F402C06D2D842D51E05093DB0071
:100CF00020E0472F7DDC0EC0690F8C0D282F30E0DF
:100D0000488959892417350729F0E62FF0E0EA17BA
:100D1000FB07B1F6D3948D2D90E0681679060CF0A0
:100D20007FCF4394042D10E0888599858017910723
:100D30000CF04DCF2A843B8453942E813F812F5F4A
:100D40003F4F3F832E833FEF231A330A48E054126C
:100D50001DCF5D815F5F5D838E859F8508969F8730
:100D60008E872C853D852F5F3F4F3D872C878034B4
:100D7000910571F04E855F855F834E832224239415
:100D8000312CA12C8C859D85998788875A2CFECE85
:100D90008091DB00811102C01092DA0061960FB6DB
:100DA000F894DEBF0FBECDBFDF91CF911F910F91A1
:100DB000FF90EF90DF90CF90BF90AF909F908F907B
:100DC0007F906F905F904F903F902F900895CF93BA
:100DD0008091DC00811119C0BDC0E091E300F09169
:100DE000E400E80FF91FA091E701B091E801A80F16
:100DF000B91F2C91208301968417950771F7485FDE
:100E00005F4F4834510519F405C048E050E0CA016D
:100E10000897E3CF21E04091E2006091DE008091ED
:100E2000D600E6DB89DE8091D6008093DD008091DC
:100E3000DE008093D700C091DA008091E10081113B
:100E400019C08DC0E091E701F091E801E80FF91FAA
:100E5000A091E300B091E400A80FB91F2C9120836A
:100E600001968417950771F7485F5F4F4834510525
:100E700019F405C048E050E0CA010897E3CF21E02B
:100E80004091E2006091EA018091E500B1DB54DE1F
:100E90008091DA008C1748F49091E5009093DD0082
:100EA0009091EA019093D700C82F8091D1008111D1
:100EB00019C04BC0E091E701F091E801E80FF91F7C
:100EC000A091E300B091E400A80FB91F2C912083FA
:100ED00001968417950771F7485F5F4F48345105B5
:100EE00019F405C048E050E0CA010897E3CF21E0BB
:100EF0004091E2006091D2008091D30079DB1CDE4A
:100F00008091DA008C1708F58091D3008093DD0082
:100F10008091D2008093D70018C0E091E701F09152
:100F2000E801E80FF91FA091E300B091E400A80FD9
:100F3000B91F2C91208301968417950771F7485F9C
:100F40005F4F4834510519F40FC048E050E0CA0122
:100F50000897E3CF8091E10081118CCFA6CF8091DB
:100F6000D1008111BFCFF1CFCF9108951F920F9281
:100F70000FB60F9211240F900FBE0F901F9018956F
:100F80009C01641750F45D9BFECFF901E60FF11D43
:100F900090819CB96F5F4613F6CF08951092CE00F2
:100FA0001092DB0082E080936600C19AC29AC39AD5
:100FB0001092CF008093660028E030E042E010C03D
:100FC000E091E701F091E801E80FF91F40830196F5
:100FD00082179307A9F7285F3F4F2834310519F08E
:100FE000C9010897EDCFE091E701F091E80181E0B8
:100FF000838F148E13A284A31092D9001EBC84E0A8
:1010000089BF43E060E089EA90E0BADF8091D400D4
:101010008093D500089599B79B7F99BF813051F493
:1010200043E060E082EB90E0ABDF98B382E0892799
:1010300088BB15C081110AC043E060E086EB90E0F8
:101040009FDF98B384E0892788BB09C043E060E054
:101050008AEB90E095DF98B388E0892788BB1EBCB7
:1010600084E089BF0895E091E701F091E801BF01B4
:10107000605C7F4F40E090E011C0DF018081811112
:1010800001C09F5F8C91813009F44F5F31962E171C
:101090003F0799F7F9012617370721F09F01285FCD
:1010A0003F4FEBCF941303C082E0B5DF14C0491764
:1010B00050F48091E200811103C081E0ACDF0BC0ED
:1010C00080E0A9DF08C08091E200813011F4A3DF45
:1010D00002C080E0A0DF82E08093660008951F9246
:1010E0000F920FB60F9211242F933F934F935F935C
:1010F0006F937F938F939F93AF93BF93EF93FF93E0
:101100008091A70081508093A700811119C0809120
:10111000A8008093A70080916600813019F4109296
:1011200066000EC08091660081110AC043E060E055
:101130008EEB90E025DF81E08093D0008093CE009D
:101140008BED99ED9DBD8CBD1FBCFF91EF91BF91C3
:10115000AF919F918F917F916F915F914F913F914F
:101160002F910F900FBE0F901F901895B99ABA9AB1
:10117000BB9AC19AC29AC39A08958091A80080939D
:10118000A7008BED99ED9DBD8CBD1FBC8EB5846015
:101190008EBD8EB581608EBD84E089BF08952F928B
:1011A0003F924F925F926F927F928F929F92AF92F7
:1011B000BF92CF92DF92EF92FF920F931F93CF9344
:1011C000DF93CDB7DEB766970FB6F894DEBF0FBEDC
:1011D000CDBF81E0809366001092DC001092E100A8
:1011E0001092D10021E030E03C8B2B8B1E8A1D8AAF
:1011F0001A8AE7C0E091E701F091E8016C857D85EE
:10120000E60FF71F90818091E2009813BCC04A88D6
:101210004A94E42CF12C8B899C898E159F050CF443
:10122000B2C03101398A288A042D5B86AA88083029
:1012300008F09DC01B851150812F90E028893989C5
:10124000281739070CF493C04701880C991C880CA7
:10125000991C880C991C402E512CB201660F771FE7
:10126000660F771F660F771F7A876987B02EBA18C7
:101270002B2D30E038872F833B84183008F070C066
:10128000A091E701B091E801880D991DFD01E80FDB
:10129000F91F20814091E20030E081E090E04111AF
:1012A00080E02817390709F05BC0A01620F0A016CF
:1012B00021F080E003C087E001C08AE0311620F011
:1012C000311621F050E003C057E001C05AE0912FE1
:1012D0009319CF80D884C80ED11C4C145D0409F436
:1012E0003FC0212F30E0E92EF12CE50EF11C2E1528
:1012F0003F05B1F169857A85260F371FFD01E20FA1
:10130000F31F8081481761F180818230A1F0612F45
:10131000802F1AC0220F331F220F331F220F331FBB
:10132000E20FF31FEA0FFB1F20814217C9F0208153
:10133000223051F402C0612F802F71E07093DB00E6
:1013400020E00E9449000CC0690F8B0D282F30E06F
:101350002C153D0529F0E62FF0E0EE15FF05D1F63E
:101360001F5F812F90E0681679060CF086CF0F5F23
:10137000E02EF12C8E859F858E159F050CF057CFA2
:10138000288839885B8453942C853D852F5F3F4F97
:101390003D872C873FEF231A330A68E056122ACF85
:1013A0007A897F5F7A8B8D899E8908969E8B8D8B3B
:1013B0002B893C892F5F3F4F3C8B2B8B80349105D1
:1013C00071F06D897E897D876C8722242394312C6E
:1013D000812C8B899C899F878E87582C0BCF80917D
:1013E000DB00882309F449C0F2DC21E04091E200EF
:1013F0006091D7008091DD000E9449008DE48983CF
:101400008A8380E28B838091DD008F5B8C83809167
:10141000D7008F5C8D838DE08E8346E060E0CE0147
:101420000196AEDD8091DB00882339F187EA91E6F1
:101430000197F1F700C000008091DB00823021F0BD
:1014400080916600823091F71092DB008091D50088
:1014500090E0FC01E951FF4F20812F3419F7FC0186
:10146000E951FF4F81818B34E9F687DE8091D4000A
:101470008093D500109266000BC08091D900813016
:1014800011F4F1DD05C043E060E082EC90E078DD2E
:1014900066960FB6F894DEBF0FBECDBFDF91CF9139
:1014A0001F910F91FF90EF90DF90CF90BF90AF9082
:1014B0009F908F907F906F905F904F903F902F9074
:1014C00008959C019091D5004091D800F901E90F51
:1014D000F11D8081841303C09F5F9093D50080919C
:1014E000CE00813021F482E08093CE000895809177
:1014F000DB00813021F482E08093DB000895B901A4
:101500009091D500292F30E0FB01E20FF31F90816D
:10151000913499F4FB01E20FF31F9181943509F0A6
:101520000BC1FB01E20FF31F8281481305C143E0A9
:1015300060E089EA90E024DDFFC0923581F4FB0190
:10154000E20FF31F9181933509F0F6C0FB01E20F22
:10155000F31F8281843509F0EFC020DDEDC09335A3
:10156000D9F4FB01E20FF31F9181903509F064C0BB
:10157000FB01E20FF31F8381823419F41092E20021
:1015800005C0873519F481E08093E20043E060E014
:1015900089EA90E0F5DCD0C09E34D1F5FB01E20F82
:1015A000F31F8181873409F0C7C01092DB0028E067
:1015B00030E042E010C0E091E701F091E801E80F6F
:1015C000F91F4083019682179307A9F7285F3F4FC1
:1015D0002834310519F0C9010897EDCFE091E701F2
:1015E000F091E80181E0838F148E13A284A380918F
:1015F000E200811109C081E08093660043E060E071
:1016000089EA90E0BDDC98C0C9DC1092660094C005
:10161000953441F5FB01E20FF31F8181873409F016
:101620008BC043E060E089EA90E0AADC8091D400BE
:101630008093D50018DD80C0FB01E20FF31F81818C
:10164000843509F079C0FB01E20FF31F83818053D9
:101650008093A8008093A70043E060E089EA90E0CF
:101660008FDC6AC09D3409F042C0FB01E20FF31F1A
:101670008181863509F060C0F9013396E60FF71FC6
:1016800080818154883008F057C02C5F3F4FDB01C8
:10169000A20FB31F8C918153883008F04DC0109277
:1016A000D90041E08091E200811140E06C916153EA
:1016B000808121E081540E944900813051F443E04F
:1016C00060E089EA90E05CDC58DD81E080936600B0
:1016D00033C043E060E086EC90E052DC81E0809330
:1016E000CE0082E0809366001092CF0025C0903536
:1016F00089F4FB01E20FF31F81818335E9F481E076
:10170000809366008093D90043E060E089EA90E02E
:1017100037DC12C0973581F4FB01E20FF31F8181A2
:101720008E3451F481E077DC82E08093660043E000
:1017300060E089EA90E024DC8091D4008F5F8093A0
:10174000D50008951F920F920FB60F9211242F9378
:101750003F934F935F936F937F938F939F93AF9339
:10176000BF93EF93FF938CB1E091D400F0E0E95187
:10177000FF4F80835D9BFECF8CB9E091D400F0E0F9
:10178000E951FF4F90818091D800981303C087EEF4
:1017900090E097DE8091D4008F5F8093D400FF911A
:1017A000EF91BF91AF919F918F917F916F915F91D9
:1017B0004F913F912F910F900FBE0F901F90189552
:1017C00010BC80E489B980B58F7E80BD80B58F7DE7
:1017D00080BD80B5877F80BD86E880BD52988AB184
:1017E00088618AB9569A579A0895CF93DF9300D0AB
:1017F0001F92CDB7DEB70E944800E2DFB7DC8DE074
:1018000090E09093D9008093D800C19AC29AC39A6D
:1018100080E490E0B9D09093E8018093E70180E400
:1018200090E0B2D09093E4008093E3001A82198292
:101830001B821A82198289819A81089734F522E0E5
:101840001B828B818830C0F489819A813B81880F0B
:10185000991F880F991F880F991F830F911DE09181
:10186000E701F091E801E80FF91F20838B818F5F7A
:101870008B838B81883040F389819A8101969A838A
:10188000898389819A810897DCF2E091E701F091E0
:10189000E80181E0838F148E13A284A31092D500F7
:1018A0001092D4001092D0001092CE001092DB0063
:1018B00092E0909366008093E200789412E0809129
:1018C000CE00882309F445C087EA91E60197F1F735
:1018D00000C000008091CE008230E1F71092CE006F
:1018E0008091D50090E0FC01E951FF4F20812F3419
:1018F00071F4FC01E951FF4F81818B3431F5809106
:10190000D4008093D50081E086DB1093660080913F
:10191000D50090E0FC01E951FF4F20812035A9F46A
:10192000FC01E951FF4F81818C3479F48091D00022
:10193000813021F41092D00020DC07C043E060E049
:101940008AEC90E01DDB109366008091D4008093B8
:10195000D5008091660081110AC08091CF0081116D
:1019600006C081E08093CF0008DC10926600809171
:101970006600813009F0A3CF1092CF00FEDB81E03A
:10198000809366000CDC9BCF0F931F93CF93DF9364
:101990008230910510F482E090E0E091ED01F09149
:1019A000EE0120E030E0A0E0B0E0309719F1408196
:1019B00051810281138148175907C8F08417950790
:1019C00069F4109731F012960C93129713961C93AA
:1019D00027C00093ED011093EE0122C021153105BF
:1019E00019F04217530718F49A01BD01EF01DF0106
:1019F000F801DBCF21153105F9F0281B390B243014
:101A0000310580F48A819B816115710521F0FB010C
:101A10009383828304C09093EE018093ED01FE01D5
:101A2000329644C0FE01E20FF31F8193919322503E
:101A30003109398328833AC02091EB013091EC01C0
:101A4000232B41F420916200309163003093EC012C
:101A50002093EB0120916000309161002115310548
:101A600041F42DB73EB74091640050916500241BAE
:101A7000350BE091EB01F091EC01E217F307A0F4D4
:101A80002E1B3F0B2817390778F0AC014E5F5F4FD4
:101A90002417350748F04E0F5F1F5093EC01409319
:101AA000EB018193919302C0E0E0F0E0CF01DF9180
:101AB000CF911F910F910895CF93DF93009709F471
:101AC00081C0FC01329713821282A091ED01B09186
:101AD000EE01109781F420813181820F931F2091B4
:101AE000EB013091EC012817390751F5F093EC0127
:101AF000E093EB0167C0ED0120E030E0CE17DF0797
:101B000040F44A815B819E0141155105F1F0EA01E3
:101B1000F5CFD383C28340815181840F951FC817AD
:101B2000D90759F488819981840F951F0296918372
:101B300080838A819B81938382832115310529F4D7
:101B4000F093EE01E093ED013DC0E901FB83EA83F0
:101B500049915991C40FD51FEC17FD0761F480819D
:101B60009181840F951F0296E90199838883828170
:101B700093819B838A83E0E0F0E012968D919C91A3
:101B80001397009719F0FD01DC01F7CF8D919C911F
:101B900011979D012E5F3F4F820F931F2091EB0104
:101BA0003091EC012817390769F4309729F4109225
:101BB000EE011092ED0102C013821282B093EC018B
:0E1BC000A093EB01DF91CF910895F894FFCF31
:101BCE000000EF01200002120B101010100B120B70
:101BDE000A0D0D0D0D0A0B100D0F0E0E0F0D101020
:101BEE000D0E0F0F0E0D10100D0E0F0F0E0D1010FF
:101BFE000D0F0E0E0F0D100B0A0D0D0D0D0A0B1203
:101C0E000B101010100B1202024F4B0D0020000A89
:101C1E000D00574E0D004C530D0054450D00495408
:0E1C2E000D004D500D00494C0D0051540D009D
:00000001FF
