S00A00004D312E737265639C
S113000029C0000043C0000041C000003FC0000000
S11300103DC000003BC0000039C0000037C00000F4
S1130020E0C2000033C0000031C0000011C700006E
S11300302DC00000B7C2000029C0000027C0000086
S113004025C0000023C0000021C000001FC0000024
S11300501DC0000011241FBECFE5D4E0DEBFCDBF1C
S113006010E0A0E6B0E0E2E1F1E102C005900D92FB
S1130070A438B107D9F721E0A4E8B0E001C01D928B
S1130080A539B207E1F71AD50C948708B9CF0895BA
S11300909C01641750F45D9BFECFF901E60FF11D3E
S11300A090819CB96F5F4613F6CF08951092850036
S11300B028E030E042E010C0E0918E01F0918F0121
S11300C0E80FF91F4083019682179307A9F7285F69
S11300D03F4F2834310519F0C9010897EDCFE0915D
S11300E08E01F0918F0181E0838F148E13A284A37B
S11300F01092890008952F923F924F925F926F92CF
S11301007F928F929F92AF92BF92CF92DF92EF92A3
S1130110FF920F931F93CF93DF93CDB7DEB766970C
S11301200FB6F894DEBF0FBECDBFC82ED12C9601FA
S1130130215031093A83298386010F5F1F4F29819A
S11301403A81021713070CF49FC1262F30E03E8733
S11301502D87C601880F991F880F991F880F991F33
S1130160280F391F3C872B87412C8D859E8501974D
S11301709B8B8A8B6D847E849FEF691A790A0F2E7C
S1130180F1E42F2EF02D2C0C21E3260F2C8B6894F8
S1130190AA24A5F80F2EFDE09F2EF02D498A2D8A62
S11301A01801CE8A462E542E89819A8199230CF403
S11301B05EC189819A8108970CF059C18A899B890B
S11301C09C838B838B819C81681679060CF44FC1C8
S11301D0388A2F863E888B819C8199230CF43AC1FE
S11301E08B819C8108970CF035C140918E01509110
S11301F08F01E981FA818B819C81EE0FFF1FEE0F45
S1130200FF1FEE0FFF1FE80FF91FE40FF51F80819A
S1130210851509F41FC1E981FA818B819C81EE0F58
S1130220FF1FEE0FFF1FEE0FFF1FE80FF91FE40F74
S1130230F51F8081823009F40DC189819A81C81625
S1130240D9063CF089819A81C816D90639F0B12CB7
S113025009C00F2EF7E0BF2EF02D04C00F2EF9E0D9
S1130260BF2EF02D8B819C81C816D9064CF08B8152
S11302709C812D853E852817390739F0812C09C0CA
S11302800F2EF7E08F2EF02D04C00F2EF9E08F2EE5
S1130290F02D89819A81182F13198B819C81082F45
S11302A0041929813A81A22F8B819C81B82F33278D
S11302B0E12EF12CEB0CF11C2E153F0509F4CAC0FC
S11302C09927602F70E0680D711D8617970709F450
S11302D0C1C0220F331F220F331F220F331F820F7F
S11302E0931FFA01E80FF91F8081823009F4B2C02C
S11302F08081581239C011C0880F991F880F991F27
S1130300880F991FE80FF91FE40FF51F80818230D1
S113031009F4A0C08081581227C0EB85FC85E40F46
S1130320F51F50823D893D838C898E83AF82E09195
S11303308E01F0918F012B853C85E20FF31F8081A4
S1130340805D8887A9869A8646E060E0CE0105969E
S11303509FDE89819A81F82E2B813C81E22EB8128E
S113036012C031E0398B76C0B00FA10F8A2F90E014
S11303708E159F0509F46EC0EB2FF0E0E617F70722
S113038009F0BACF67C0821609F453C09927880FC1
S1130390991F880F991F880F991F820F911DE09153
S11303A08E01F0918F01E80FF91F2081223009F4AA
S11303B043C02081521609F442C02E2DE02E3F2D59
S11303C0F12E132F022F13C0802F90E028E0129FEC
S11303D0800D911D1124E0918E01F0918F01E80FA1
S11303E0F91F2081223071F12081521671F150825F
S11303F021E4210F2D8321E3200F2E83AF8220914E
S11304008E0130918F01F901E80FF91F8081805D21
S11304108887A9869A8646E060E0CE01059638DE94
S11304200E0D1F0DB116A1F08012CECF31E0398B25
S113043011C081E0898B0EC091E0998B0BC021E043
S1130440298B08C031E0398B05C081E0898B02C05B
S113045091E0998B8B819C8101969C838B838B810A
S11304609C81681679060CF0B6CE2F843888898171
S11304709A8101969A83898389819A8128163906FB
S11304800CF092CE498801C0412C81E0481280E0F2
S113049066960FB6F894DEBF0FBECDBFDF91CF9145
S11304A01F910F91FF90EF90DF90CF90BF90AF908E
S11304B09F908F907F906F905F904F903F902F9080
S11304C00895BF92CF92DF92EF92FF920F931F9302
S11304D0CF93DF9300D000D000D0CDB7DEB741E09A
S11304E060E087E690E0D4DD11E30F2EFCE7FF2EF9
S11304F0F02D00E2F9820A831B830C8344E060E060
S1130500CE010196C5DD1F5F1933A1F700E010E0AD
S11305100F2EF1E4BF2EF02D0F2EFCE7CF2EF02D81
S11305206894DD24D5F842E060E089E690E0B0DD2F
S1130530B98241E060E0CE010196AADD780188E04D
S1130540E80EF11CC982DA82E0918E01F0918F01EC
S1130550E00FF11F8081805D8B83DC8244E060E0EA
S1130560CE01019695DD0F5F1F4F0E151F0551F744
S1130570B394870100341105B1F642E060E089E6E6
S113058090E086DD26960FB6F894DEBF0FBECDBF91
S1130590DF91CF911F910F91FF90EF90DF90CF905B
S11305A0BF9008951F920F920FB60F9211240F90CF
S11305B00FBE0F901F90189510BC83E389B980B5C6
S11305C08F7E80BD80B58F7D80BD80B5877F80BDE7
S11305D086E880BD52988AB188618AB9569A579A3A
S11305E008951F920F920FB60F9211242F933F93E9
S11305F04F935F936F937F938F939F93AF93BF9327
S1130600EF93FF9380916600813019F41092660095
S11306100CC080916600811108C043E060E08CE664
S113062090E036DD81E080938400FF91EF91BF91EB
S1130630AF919F918F917F916F915F914F913F9176
S11306402F910F900FBE0F901F90189599B79B7F15
S113065099BF813051F443E060E080E790E018DD19
S113066098B382E0892788BB089581110AC043E0CA
S113067060E084E790E00CDD98B384E0892788BBD0
S1130680089543E060E088E790E002DD98B388E0F5
S1130690892788BB0895E0918E01F0918F01BF01F5
S11306A0605C7F4F40E090E011C0DF0180818111E8
S11306B001C09F5F8C91813009F44F5F31962E17F2
S11306C03F0799F7F9012617370721F09F01285FA3
S11306D03F4FEBCF941303C082E0B8DF14C0491737
S11306E050F480918C00811103C081E0AFDF0BC016
S11306F080E0ACDF08C080918C00813011F4A6DF6B
S113070002C080E0A3DF82E0809366000895B99A76
S1130710BA9ABB9AC19AC29AC39A08958CED9BE087
S11307209DBD8CBD1FBC8EB584608EBD84E089BF29
S113073008952F923F924F925F926F927F928F9281
S11307409F92AF92BF92CF92DF92EF92FF920F935C
S11307501F93CF93DF93CDB7DEB769970FB6F894A5
S1130760DEBF0FBECDBF81E08093660021E030E0A4
S11307703C8B2B8B1E8A1D8A412C4F8A49C1E091E8
S11307808E01F0918F0189899A89E80FF91F908170
S113079080918C00981318C122242A94230CC22C13
S11307A0D12CEB89FC89EC15FD050CF40DC14D84AD
S11307B05E84F7E0F21508F4FEC099249A94980C2C
S11307C0892D90E02D853E85281739070CF457C1F3
S11307D03601660C771C660C771C660C771CE22DC0
S11307E0F0E0F887EF83EE0FFF1FEE0FFF1FEE0F11
S11307F0FF1FFC87EB87C22CC3182C2D30E03A87EF
S1130800298737E0391508F4CBC060918E017091C7
S11308108F01860D971DFB01E80FF91F2081409180
S11308208C0030E081E090E0411180E02817390726
S113083009F0B6C0321420F0321439F0E12C09C0AA
S11308400F2EF7E0EF2EF02D04C00F2EFAE0EF2E5E
S1130850F02D391420F0891439F0D12C09C00F2E51
S1130860F7E0DF2EF02D04C00F2EFAE0DF2EF02D7E
S1130870F92CF818A985BA85AE0DB11D8F8198851C
S11308808A179B0709F48CC0892D90E0EF2DF0E0C6
S11308909F012D0D311D398F288F8217930709F47D
S11308A07FC0AB84BC84A80EB91ECB018A0D9B1DEE
S11308B0FC012081421709F473C080818230B1F0B9
S11308C0092D122D26C0880F991F880F991F880F94
S11308D0991F820F931F860F971FFC0120814217D7
S11308E009F45EC080818230A1F402C0092D122D6A
S11308F0602F812F00DCFDE4F983FA8320E22B834F
S11309001F5B1C830F5C0D833DE03E83E21011C02E
S11309103AC00F0D1C0D812F90E08A179B0709F434
S11309203FC0202F30E0E88DF98D2E173F0759F690
S113093037C0D91441F180918E0190918F01FC014F
S1130940EA0DFB1D908180918C009817E1F0392D00
S1130950222D12C0E32FF0E088E0289FE00DF11D66
S1130960112480918E0190918F01E80FF91F9081DD
S113097080918C00981739F080833F0D2C0DE2167E
S113098011F0D312E7CF91E090938A009ADD46E00C
S113099060E0CE0101967CDB80918A00811148C021
S11309A09394892D90E0481659060CF02ACF809133
S11309B08A0081113DC02394C22CD12CEF85F88983
S11309C0EC15FD050CF0F5CE80918A00811130C044
S11309D0839429893A892F5F3F4F3A8B298B8D85E0
S11309E09E8501969E878D8798E08912C8CEEF89EF
S11309F0EF5FEF8B2D893E89285F3F4F3E8B2D8B18
S1130A008B899C8901969C8B8B8B2034310581F0DA
S1130A10ED89FE89FA8BE98B21E030E03E872D8752
S1130A20312C8B899C89988B8F87832C3F88A7CE08
S1130A3080918A008823F1F3EFE1FEE43197F1F726
S1130A4000C0000080918A008230B1F710928A00C1
S1130A508091870090E0FC01E257FF4F20812F3402
S1130A6039F7FC01E257FF4F81818B3409F756DED9
S1130A7080918600809387001092660006C0809162
S1130A808A00882309F497CFD3CF69960FB6F894D8
S1130A90DEBF0FBECDBFDF91CF911F910F91FF90AD
S1130AA0EF90DF90CF90BF90AF909F908F907F900A
S1130AB06F905F904F903F902F900895CF93DF9366
S1130AC000D0CDB7DEB7E3DA77DD21DE8DE090E04C
S1130AD09093890080938800C19AC29AC39A80E453
S1130AE090E0F4D190938F0180938E0119821A8241
S1130AF019828981883000F522E01A828A8188303F
S1130B00A8F439818A8190E048E0349F800D911DDA
S1130B101124E0918E01F0918F01E80FF91F2083D9
S1130B208A818F5F8A838A81883058F389818F5FB5
S1130B3089838981883008F3E0918E01F0918F01D7
S1130B4081E0838F148E13A284A3109287001092E5
S1130B5086001092840010928A0092E090936600BE
S1130B6080938C00789412E0809184008823D1F1E2
S1130B708FE19EE40197F1F700C0000080918400AA
S1130B808230E1F7109284008091870090E0FC01AC
S1130B90E257FF4F20812F3471F4FC01E257FF4FDD
S1130BA081818B34D9F4809186008093870081E021
S1130BB04DDD109366008091870090E0FC01E257C0
S1130BC0FF4F2081203551F4FC01E257FF4F818112
S1130BD08C3421F480E03ADD109366008091860025
S1130BE0809387008091660081110AC080918500FE
S1130BF0811106C081E08093850090DD109266002B
S1130C0080916600813009F0AFCF1092850086DDB7
S1130C1081E0809366008DDDA7CF9C0190918700D1
S1130C2040918800F901E90FF11D8081841303C00C
S1130C309F5F9093870080918400813021F482E04B
S1130C4080938400089580918A00813021F482E0A9
S1130C5080938A000895B90190918700292F30E08C
S1130C60FB01E20FF31F9081913499F4FB01E20F31
S1130C70F31F9181943509F0E5C0FB01E20FF31FE6
S1130C8082814813DFC043E060E08CE790E000DA43
S1130C90D9C09235F9F4FB01E20FF31F918193352A
S1130CA009F0D0C0FB01E20FF31F8281843509F003
S1130CB0C9C01092840010928A0082E0809366007A
S1130CC0C19AC29AC39AF2D943E060E08CE790E0FB
S1130CD0DFD9B8C09335D9F4FB01E20FF31F91813A
S1130CE0903509F041C0FB01E20FF31F8381823488
S1130CF019F410928C0005C0873519F481E08093B3
S1130D008C0043E060E08CE790E0C2D99BC09E3445
S1130D10B9F4FB01E20FF31F8181873409F092C01B
S1130D2080918C00811104C081E08093660002C030
S1130D301092660043E060E08CE790E0A9D982C09D
S1130D40953431F5FB01E20FF31F8181873409F0FB
S1130D5079C043E060E08CE790E09AD98091860006
S1130D608093870098DC6EC0FB01E20FF31F818142
S1130D70843509F067C0FB01E20FF31F83818053C0
S1130D808093900143E060E08CE790E081D95AC001
S1130D909D3499F5FB01E20FF31F8181863509F03B
S1130DA051C0FB01E20FF31F93819154983008F076
S1130DB049C0FB01E20FF31F64816153683008F0FE
S1130DC041C041E080918C00811140E0892F93D98A
S1130DD0813051F443E060E08CE790E059D99EDC27
S1130DE081E0809366002EC043E060E080E890E0FC
S1130DF04FD981E08093840025C0903589F4FB01AC
S1130E00E20FF31F81818335E9F481E0809366006A
S1130E108093890043E060E08CE790E039D912C008
S1130E20973581F4FB01E20FF31F81818E3451F475
S1130E3081E00CDC82E08093660043E060E08CE7B4
S1130E4090E026D9809186008F5F80938700089573
S1130E501F920F920FB60F9211242F933F934F932B
S1130E605F936F937F938F939F93AF93BF93EF930E
S1130E70FF938CB1E0918600F0E0E257FF4F80834E
S1130E805D9BFECF8CB9E0918600F0E0E257FF4F06
S1130E90908180918800981303C08EE890E0BDDEB5
S1130EA0809186008F5F80938600FF91EF91BF91C0
S1130EB0AF919F918F917F916F915F914F913F91EE
S1130EC02F910F900FBE0F901F9018950F931F93A3
S1130ED0CF93DF938230910510F482E090E0E091AB
S1130EE09301F091940120E030E0A0E0B0E030976D
S1130EF019F1408151810281138148175907C8F0C3
S1130F008417950769F4109731F012960C93129791
S1130F1013961C9327C0009393011093940122C04D
S1130F202115310519F04217530718F49A01BD0130
S1130F30EF01DF01F801DBCF21153105F9F0281BA2
S1130F40390B2430310580F48A819B816115710548
S1130F5021F0FB019383828304C0909394018093D6
S1130F609301FE01329644C0FE01E20FF31F819308
S1130F70919322503109398328833AC020919101F9
S1130F8030919201232B41F420916200309163004F
S1130F90309392012093910120916000309161007F
S1130FA02115310541F42DB73EB7409164005091AD
S1130FB06500241B350BE0919101F0919201E21739
S1130FC0F307A0F42E1B3F0B2817390778F0AC0168
S1130FD04E5F5F4F2417350748F04E0F5F1F509345
S1130FE09201409391018193919302C0E0E0F0E07B
S1130FF0CF01DF91CF911F910F910895CF93DF938C
S1131000009709F481C0FC01329713821282A091E7
S11310109301B0919401109781F420813181820F62
S1131020931F20919101309192012817390751F5AE
S1131030F0939201E093910167C0ED0120E030E06C
S1131040CE17DF0740F44A815B819E0141155105AB
S1131050F1F0EA01F5CFD383C28340815181840F3B
S1131060951FC817D90759F488819981840F951F52
S11310700296918380838A819B8193838283211545
S1131080310529F4F0939401E09393013DC0E90103
S1131090FB83EA8349915991C40FD51FEC17FD07CF
S11310A061F480819181840F951F0296E9019983EF
S11310B08883828193819B838A83E0E0F0E01296A7
S11310C08D919C911397009719F0FD01DC01F7CFE6
S11310D08D919C9111979D012E5F3F4F820F931F1D
S11310E020919101309192012817390769F43097C2
S11310F029F4109294011092930102C01382128277
S1131100B0939201A0939101DF91CF910895F89447
S1051110FFCF0B
S11311120000950120000220000A0D0049540D0030
S1131122574E0D004C530D0054450D004F4B0D000E
S1071132494C0D0013
S9030000FC
