S00A00004D312E737265639C
S113000029C0000044C0000042C0000040C00000FD
S11300103EC000003CC000003AC0000038C00000F0
S11300200C947F0834C0000032C000000C94990B7B
S11300302EC000003AC700002AC0000028C00000FB
S113004026C0000024C0000022C0000020C0000020
S11300501EC0000011241FBECFE5D4E0DEBFCDBF1B
S113006010E0A0E6B0E0ECEBFBE102C005900D92DD
S1130070AC3CB107D9F721E0ACECB0E001C01D9273
S1130080AE3EB207E1F70E94EC0B0C94DC0DB8CF46
S113009008952F923F924F925F926F927F928F9228
S11300A09F92AF92BF92CF92DF92EF92FF920F9303
S11300B01F93CF93DF93CDB7DEB72E970FB6F89487
S11300C0DEBF0FBECDBF882E962E2D83482E512C19
S11300D0C20101979A83898332012FEF621A720A4F
S11300E089819A81681679060CF4EEC1262E312C8A
S11300F0C201880F991F880F991F880F991FDC016F
S1130100A20DB31DBB87AA87C12C1E86F1013197AE
S1130110FF83EE835101FFEFAF1ABF0A39862886A9
S1130120382C8C2C262E942E89819A8199230CF4B8
S1130130BCC189819A8108970CF0B7C1CE80DF8059
S1130140DC82CB828B819C81A816B9060CF4ADC1EC
S11301508B819C8199230CF49DC18B819C81089790
S11301600CF098C16091E5017091E601E981FA8192
S11301708B819C81EE0FFF1FEE0FFF1FEE0FFF1F01
S1130180E80FF91FE60FF71F8081891509F482C172
S1130190E981FA818B819C81EE0FFF1FEE0FFF1F17
S11301A0EE0FFF1FE80FF91FE60FF71F8081823063
S11301B008F070C189819A81481659063CF08981FA
S11301C09A814816590639F0F12C09C00F2EF7E030
S11301D0FF2EF02D04C00F2EF9E0FF2EF02D8B81A1
S11301E09C81481659064CF08B819C812885398561
S11301F02817390739F0E12C09C00F2EF7E0EF2E4C
S1130200F02D04C00F2EF9E0EF2EF02D89819A8194
S1130210182F13198B819C81082F021929813A8187
S1130220422F8B819C81582FAD81AA2341F1332722
S1130230E12FF0E0EF0DF11D2E173F0709F42AC15D
S11302409927A02FB0E06D01CE0CD11CDD86CC86A1
S11302508C159D0509F41EC1220F331F220F331F75
S1130260220F331F820F931F860F971FDC012C91DF
S1130270223008F00FC18C919812A2C091C033278C
S1130280A12FB0E0AF0DB11D2A173B0709F402C13D
S11302909927E02FF0E06F01CE0CD11CDD86CC86CF
S11302A08C159D0509F4F6C0220F331F220F331F4E
S11302B0220F331F820F931F860F971FFC0120818B
S11302C0223008F0E7C08081981215C05EC1880F03
S11302D0991F880F991F880F991F820F931F860FEC
S11302E0971FFC012081223008F0D4C08081981629
S11302F009F44BC102C0CC84DD84500F410F842F1C
S113030090E08A179B0709F4C5C0252F30E02C150F
S11303103D05E9F6BFC0E91609F499C0F901FF27C4
S1130320EE0FFF1FEE0FFF1FEE0FFF1FE40FF11D77
S1130330E60FF71F2081223008F08CC02081921232
S113034012C08BC0E92FF0E028E0829FE00DF11D80
S11303501124E60FF71F2081223008F081C020818C
S1130360921609F480C08394900F810FF81609F453
S11303707DC0E912E7CF31E03E878CC0880F991F1A
S1130380880F991F880F991F820F931F860F971F3D
S1130390DC012C91223008F07DC08C91981212C09F
S11303A0EA85FB85E60FF71F908289819A81482FA1
S11303B06B817C81562FF81213C0B1E0BE876AC0EE
S11303C0CC84DD84500F410F842F90E08E179F075B
S11303D009F460C0252F30E02C153D0579F65AC08C
S11303E0E61609F446C09927880F991F880F991FAC
S11303F0880F991F860F911D2091E5013091E60128
S1130400F901E80FF91F80818230B0F580819812DC
S113041014C035C0E52FF0E028E0429FE00DF11D47
S113042011248091E5019091E601E80FF91F808184
S1130430823040F58081981641F19082500F410F2F
S1130440F41631F1E512E6CF31E03E8723C041E0F6
S11304504E8720C051E05E871DC081E08E871AC0A0
S113046091E09E8717C0A1E0AE8714C0B1E0BE87BB
S113047011C0E1E0EE870EC0F1E0FE870BC021E081
S11304802E8708C031E03E8705C041E04E8702C098
S113049051E05E878B819C8101969C838B838B8149
S11304A09C81A816B9060CF053CE89819A810196D5
S11304B09A83898389819A81681679060CF034CEEF
S11304C0C82C832C922C02C0C12C1E868D818111D4
S11304D056C02091E5013091E601E091E801F0E099
S11304E0EE0FFF1FEE0FFF1FEE0FFF1F8091DE00C8
S11304F0E80FF11DE20FF31FE081440C551C440C7E
S1130500551C440C551CC201890D911DDC01A959CF
S1130510BF4F6C91F0E04C2D50E0425F5F4F460FAF
S1130520511D4E175F075CF1F901E80FF91F625F77
S11305306C0D6083E091E801F0E0EE0FFF1FEE0F19
S1130540FF1FEE0FFF1F2091DE00DF01A20FB11D80
S1130550E091E501F091E601EA0FFB1F20812330D1
S113056010F022E020838092E8019092DE00FC01EA
S1130570E959FF4F8081825FC80EC092D80081E0A4
S1130580BE85B13069F080E00BC029813A81822FA9
S11305904B815C81942FF212BECEE1E0EE877ACFDC
S11305A02E960FB6F894DEBF0FBECDBFDF91CF916C
S11305B01F910F91FF90EF90DF90CF90BF90AF907D
S11305C09F908F907F906F905F904F903F902F906F
S11305D008952F923F924F925F926F927F928F92E3
S11305E09F92AF92BF92CF92DF92EF92FF920F93BE
S11305F01F93CF93DF93CDB7DEB761970FB6F8940F
S1130600DEBF0FBECDBF81E08093660083E08093A0
S1130610E8018093DE0021E030E03D872C871F86CF
S11306201E86312CF3C0E091E501F091E6014D8185
S11306305E81E40FF51F208130E081E090E040917D
S1130640E000411180E02817390709F0C2C02F806B
S11306502A94022D10E08C859D85801791070CF457
S1130660B8C032015B864A8697E0921508F4A6C0AA
S1130670DD24DA94D30C8D2D90E02A853B85281750
S113068039070CF49BC04801880C991C880C991CF0
S1130690880C991CA22CB12CA501440F551F440FA2
S11306A0551F440F551F5C834B83C22C5F81C51AB1
S11306B02C2D30E03A832983552E37E03D1508F47C
S11306C076C0E090E501F090E601880D991DF701F0
S11306D0E80FF91F80819091E000891368C05214DB
S11306E020F0521421F020E003C027E001C02AE0EA
S11306F05D1420F03D1421F030E003C037E001C068
S11307003AE09D2D931949815A81420F511D598B0D
S1130710488BA416B50609F44AC0ED2DF0E0A92FC4
S1130720B0E0A30FB11DEA17FB0709F440C02B8109
S11307303C81E20FF31FEE0DFF1D208171E081115A
S113074070E0072F10E030E02017310781F180813D
S11307508230B1F06D2D822D1CC0220F331F220F69
S1130760331F220F331FE20FF31FEE0DFF1D2081F5
S113077030E020173107D9F02081223051F402C033
S11307806D2D822D51E05093D90020E0472F81DC5C
S11307900EC0690F8C0D282F30E048895989241721
S11307A0350729F0E62FF0E0EA17FB07B1F6D394FA
S11307B08D2D90E0681679060CF07FCF2394022DDE
S11307C010E088859985801791070CF04DCF4A84F5
S11307D05B8433942D813E812F5F3F4F3E832D8375
S11307E03FEF431A530A48E034121DCF3F8033943D
S11307F08E859F8508969F878E872C853D852F5FE4
S11308003F4F3D872C878034910579F04E855F8575
S11308105E834D8344244394512CA12C8C859D8567
S1130820998788873F823A2CFECE8091D900811126
S113083002C01092D80061960FB6F894DEBF0FBEC6
S1130840CDBFDF91CF911F910F91FF90EF90DF907B
S1130850CF90BF90AF909F908F907F906F905F905C
S11308604F903F902F900895CF938091DA00882382
S113087009F471C0A091E100B091E200E091E501BA
S1130880F091E60180E092E001900D920197E1F78A
S113089021E04091E0006091DC008091D400F9DB1C
S11308A098DE8091D4008093DB008091DC008093FB
S11308B0D500C091D8008091DA00882309F44BC098
S11308C0A091E501B091E601E091E100F091E20030
S11308D080E092E001900D920197E1F721E04091D0
S11308E0E0006091E9018091E300D3DB72DE809146
S11308F0D8008C1748F49091E3009093DB0090911A
S1130900E9019093D500C82F8091DA00882319F16A
S1130910A091E501B091E601E091E100F091E200DF
S113092080E092E001900D920197E1F721E040917F
S1130930E0006091D0008091D100ABDB4ADE809171
S1130940D8008C1740F48091D1008093DB00809113
S1130950D0008093D500A091E501B091E601E0912B
S1130960E100F091E20080E092E001900D920197A5
S1130970E1F7CF9108952F923F924F925F926F9239
S11309807F928F929F92AF92BF92CF92DF92EF921B
S1130990FF920F931F93CF93DF93CDB7DEB72E97BC
S11309A00FB6F894DEBF0FBECDBF882E962E2D83D2
S11309B0482E512CC20101979A83898332012FEF6B
S11309C0621A720A89819A81681679060CF4EEC15A
S11309D0262E312CC201880F991F880F991F880F6A
S11309E0991FDC01A20DB31DBB87AA87C12C1E86EB
S11309F0F1013197FF83EE835101FFEFAF1ABF0A74
S1130A0039862886382C8C2C262E942E89819A811E
S1130A1099230CF4BCC189819A8108970CF0B7C161
S1130A20CE80DF80DC82CB828B819C81A816B906C4
S1130A300CF4ADC18B819C8199230CF49DC18B81F5
S1130A409C8108970CF098C16091E5017091E601D2
S1130A50E981FA818B819C81EE0FFF1FEE0FFF1F4E
S1130A60EE0FFF1FE80FF91FE60FF71F80818915AE
S1130A7009F482C1E981FA818B819C81EE0FFF1F09
S1130A80EE0FFF1FEE0FFF1FE80FF91FE60FF71F12
S1130A908081823008F070C189819A814816590694
S1130AA03CF089819A814816590639F0F12C09C025
S1130AB00F2EF7E0FF2EF02D04C00F2EF9E0FF2ECD
S1130AC0F02D8B819C81481659064CF08B819C81BA
S1130AD0288539852817390739F0E12C09C00F2EEC
S1130AE0F7E0EF2EF02D04C00F2EF9E0EF2EF02DDD
S1130AF089819A81182F13198B819C81082F0219DF
S1130B0029813A81422F8B819C81582FAD81AA2360
S1130B1041F13327E12FF0E0EF0DF11D2E173F07D0
S1130B2009F42AC19927A02FB0E06D01CE0CD11C85
S1130B30DD86CC868C159D0509F41EC1220F331F5A
S1130B40220F331F220F331F820F931F860F971F0D
S1130B50DC012C91223008F00FC18C919812A2C0B4
S1130B6091C03327A12FB0E0AF0DB11D2A173B0769
S1130B7009F402C19927E02FF0E06F01CE0CD11CDB
S1130B80DD86CC868C159D0509F4F6C0220F331F33
S1130B90220F331F220F331F820F931F860F971FBD
S1130BA0FC012081223008F0E7C08081981215C032
S1130BB058C1880F991F880F991F880F991F820F9A
S1130BC0931F860F971FFC012081223008F0D4C0A8
S1130BD08081981609F445C102C0CC84DD84500F8D
S1130BE0410F842F90E08A179B0709F4C5C0252F75
S1130BF030E02C153D05E9F6BFC0E91609F499C0AB
S1130C00F901FF27EE0FFF1FEE0FFF1FEE0FFF1F6F
S1130C10E40FF11DE60FF71F2081223008F08CC08D
S1130C202081921212C08BC0E92FF0E028E0829F4D
S1130C30E00DF11D1124E60FF71F2081223008F08A
S1130C4081C02081921609F480C08394900F810F93
S1130C50F81609F47DC0E912E7CF31E03E878CC075
S1130C60880F991F880F991F880F991F820F931F50
S1130C70860F971FDC012C91223008F07DC08C91E7
S1130C80981212C0EA85FB85E60FF71F90828981CE
S1130C909A81482F6B817C81562FF81213C0B1E0E2
S1130CA0BE876AC0CC84DD84500F410F842F90E04E
S1130CB08E179F0709F460C0252F30E02C153D05E1
S1130CC079F65AC0E61609F446C09927880F991F89
S1130CD0880F991F880F991F860F911D2091E50198
S1130CE03091E601F901E80FF91F80818230B0F5F7
S1130CF08081981214C035C0E52FF0E028E0429FAF
S1130D00E00DF11D11248091E5019091E601E80FB9
S1130D10F91F8081823040F58081981641F19082DC
S1130D20500F410FF41631F1E512E6CF31E03E8762
S1130D3023C081E08E8720C091E09E871DC0A1E082
S1130D40AE871AC0B1E0BE8717C0E1E0EE8714C0D9
S1130D50F1E0FE8711C021E02E870EC031E03E870E
S1130D600BC081E08E8708C091E09E8705C0A1E09A
S1130D70AE8702C0B1E0BE878B819C8101969C83C3
S1130D808B838B819C81A816B9060CF053CE898184
S1130D909A8101969A83898389819A816816790652
S1130DA00CF034CEC82C832C922C02C0C12C1E868D
S1130DB0ED81E11150C0F201EE0FFF1FEE0FFF1F96
S1130DC0EE0FFF1FE959FF4FE90DF11D80812C2D16
S1130DD030E0225F3F4F280F311D4091DA0050E090
S1130DE042175307ACF4825FC80EC092DA008092B7
S1130DF0D4009092DC00C092DF008092E3009092D5
S1130E00E901C092CF008092D1009092D00023C01B
S1130E104091DF0050E0421753077CF4825FC80E14
S1130E20C092DF008092E3009092E901C092CF006B
S1130E308092D1009092D0000EC04091CF0050E03B
S1130E404217530744F4825FC80EC092CF008092C9
S1130E50D1009092D00081E0FE85F13069F080E00D
S1130E600BC029813A81822F4B815C81942FF2122D
S1130E70C4CE21E02E8780CF2E960FB6F894DEBF25
S1130E800FBECDBFDF91CF911F910F91FF90EF90D7
S1130E90DF90CF90BF90AF909F908F907F906F9096
S1130EA05F904F903F902F9008951F920F920FB62E
S1130EB00F9211240F900FBE0F901F9018959C0154
S1130EC0641750F45D9BFECFF901E60FF11D90818C
S1130ED09CB96F5F4613F6CF08951092CC00109220
S1130EE0D90082E080936600C19AC29AC39A109294
S1130EF0CD008093660028E030E042E010C0E0912D
S1130F00E501F091E601E80FF91F4083019682178D
S1130F109307A9F7285F3F4F2834310519F0C90119
S1130F200897EDCFE091E501F091E60181E0838F30
S1130F30148E13A284A31092D7001EBC84E089BF30
S1130F4043E060E087EA90E0BADF8091D2008093CA
S1130F50D3000895BF92CF92DF92EF92FF920F9346
S1130F601F93CF93DF9300D000D000D0CDB7DEB76E
S1130F7041E060E08BEA90E0A2DF11E30F2EFCE792
S1130F80FF2EF02D00E2F9820A831B830C8344E0D8
S1130F9060E0CE01019693DF1F5F1933A1F700E0F3
S1130FA010E00F2EF1E4BF2EF02D0F2EFCE7CF2E14
S1130FB0F02D6894DD24D5F842E060E08DEA90E0FD
S1130FC07EDFB98241E060E0CE01019678DF7801EE
S1130FD088E0E80EF11CC982DA82E091E501F09123
S1130FE0E601E00FF11F8081805D8B83DC8244E0A9
S1130FF060E0CE01019663DF0F5F1F4F0E151F05E2
S113100051F7B394870100341105B1F642E060E072
S11310108DEA90E054DF26960FB6F894DEBF0FBE3B
S1131020CDBFDF91CF911F910F91FF90EF90DF9093
S1131030CF90BF90089599B79B7F99BF813051F4A9
S113104043E060E080EB90E03ADF98B382E08927E8
S113105088BB15C081110AC043E060E084EB90E0D6
S11310602EDF98B384E0892788BB09C043E060E0A1
S113107088EB90E024DF98B388E0892788BB1EBC06
S113108084E089BF0895E091E501F091E601BF0194
S1131090605C7F4F40E090E011C0DF0180818111EE
S11310A001C09F5F8C91813009F44F5F31962E17F8
S11310B03F0799F7F9012617370721F09F01285FA9
S11310C03F4FEBCF941303C082E0B5DF14C0491740
S11310D050F48091E000811103C081E0ACDF0BC0CB
S11310E080E0A9DF08C08091E000813011F4A3DF23
S11310F002C080E0A0DF82E08093660008951F9222
S11311000F920FB60F9211242F933F934F935F9337
S11311106F937F938F939F93AF93BF93EF93FF93BB
S113112080916600813019F4109266000EC080919F
S1131130660081110AC043E060E08CEB90E0BFDE02
S113114081E08093CE008093CC00FF91EF91BF911A
S1131150AF919F918F917F916F915F914F913F914B
S11311602F910F900FBE0F901F901895B99ABA9AAD
S1131170BB9AC19AC29AC39A08958CED9BE09DBD17
S11311808CBD1FBC8EB584608EBD84E089BF08957C
S11311902F923F924F925F926F927F928F929F9283
S11311A0AF92BF92CF92DF92EF92FF920F931F9371
S11311B0CF93DF93CDB7DEB764970FB6F894DEBF55
S11311C00FBECDBF81E0809366001092DA001092CA
S11311D0DF001092CF0021E030E03A8B298B1C8A8B
S11311E01B8A812CE6C0E091E501F091E6016D8552
S11311F07E85E60FF71F90818091E0009813B9C0B7
S113120033243A943B0CE32CF12C89899A898E156A
S11312109F050CF4AEC04F8058840F2EFAE0AF2E19
S1131220F02D97E0931508F49BC01FEF120D812F4A
S113123090E02F813885281739070CF491C04701B5
S1131240880C991C880C991C880C991C632C712C93
S1131250B301660F771F660F771F660F771F7C87B2
S11312606B87032D0B19202F30E03A87298718301C
S113127008F06FC0A091E501B091E601880D991DB9
S1131280FD01E80FF91F20814091E00030E081E08A
S113129090E0411180E02817390709F05AC0B314CF
S11312A020F0B31421F080E003C087E001C08A2D50
S11312B0B11620F0211621F050E003C057E001C020
S11312C05A2D912F9219C984DA84C80ED11C6C143A
S11312D07D0409F43EC0212F30E0E92EF12CE50E07
S11312E0F11C2E153F05A9F16B857C85260F371F50
S11312F0FD01E20FF31F8081481759F1808182308C
S1131300A1F0612F832D19C0220F331F220F331F29
S1131310220F331FE20FF31FEA0FFB1F2081421736
S1131320C1F02081223049F402C0612F832D71E085
S11313307093D90020E01FDB0CC0690F800F282FA9
S113134030E02C153D0529F0E62FF0E0EE15FF0501
S1131350D9F61F5F812F90E0481659060CF087CF0D
S11313603394E32CF12C8F8598898E159F050CF00E
S113137058CF23942D853E852F5F3F4F3E872D8781
S11313806F8178856F5F7F4F78876F8378E027124E
S11313902ACF8B2C83948B899C8908969C8B8B8B6E
S11313A029893A892F5F3F4F3A8B298B80349105E5
S11313B081F06B897C897E876D8781E090E09887D6
S11313C08F83312C29893A89388B2F87232CB82C89
S11313D00ACF8091D900882309F449C045DA21E075
S11313E04091E0006091D5008091DB00C4DA8DE487
S11313F089838A8380E28B838091DB008F5B8C837B
S11314008091D5008F5C8D838DE08E83A3DD46E0D3
S113141060E0CE01019653DD8091D900882339F133
S11314208FE19EE40197F1F700C000008091D9009C
S1131430823021F080916600823091F71092D900B9
S11314408091D30090E0FC01EB51FF4F20812F34B9
S113145019F7FC01EB51FF4F81818B34E9F68DDEE6
S11314608091D2008093D300109266000BC08091CB
S1131470D700813011F407DE05C043E060E080EC62
S113148090E01DDD64960FB6F894DEBF0FBECDBFAD
S1131490DF91CF911F910F91FF90EF90DF90CF904C
S11314A0BF90AF909F908F907F906F905F904F9080
S11314B03F902F9008959C019091D3004091D600C5
S11314C0F901E90FF11D8081841303C09F5F90939C
S11314D0D3008091CC00813021F482E08093CC0051
S11314E008958091D900813021F482E08093D9005D
S11314F00895B9019091D300292F30E0FB01E20F48
S1131500F31F9081913499F4FB01E20FF31F918151
S1131510943509F008C1FB01E20FF31F82814813DF
S113152002C143E060E087EA90E0C9DCFCC0923588
S113153081F4FB01E20FF31F9181933509F0F3C0AD
S1131540FB01E20FF31F8281843509F0ECC0C5DC96
S1131550EAC09335D9F4FB01E20FF31F9181903572
S113156009F064C0FB01E20FF31F8381823419F494
S11315701092E00005C0873519F481E08093E00003
S113158043E060E087EA90E09ADCCDC09E34D1F578
S1131590FB01E20FF31F8181873409F0C4C010926C
S11315A0D90028E030E042E010C0E091E501F0917C
S11315B0E601E80FF91F4083019682179307A9F704
S11315C0285F3F4F2834310519F0C9010897EDCF42
S11315D0E091E501F091E60181E0838F148E13A27E
S11315E084A38091E000811109C081E080936600AA
S11315F043E060E087EA90E062DC95C06EDC109224
S1131600660091C0953431F5FB01E20FF31F81812F
S1131610873409F088C043E060E087EA90E04FDC5B
S11316208091D2008093D3002EDD7DC0FB01E20FB8
S1131630F31F8181843509F076C0FB01E20FF31FAB
S1131640838180538093E70143E060E087EA90E080
S113165036DC69C09D3409F041C0FB01E20FF31F81
S11316608181863509F05FC0F9013396E60FF71FD3
S113167080818154883008F056C02C5F3F4FDB01D5
S1131680A20FB31F8C918153883008F04CC0109284
S1131690D70041E08091E000811140E06C916153FA
S11316A0808121E0815467D9813051F443E060E0C6
S11316B087EA90E004DC61DD81E08093660033C05A
S11316C043E060E084EC90E0FADB81E08093CC00BE
S11316D082E0809366001092CD0025C0903589F495
S11316E0FB01E20FF31F81818335E9F481E08093EC
S11316F066008093D70043E060E087EA90E0DFDB98
S113170012C0973581F4FB01E20FF31F81818E34FF
S113171051F481E090DC82E08093660043E060E075
S113172087EA90E0CCDB8091D2008F5F8093D30076
S113173008951F920F920FB60F9211242F933F9387
S11317404F935F936F937F938F939F93AF93BF93C5
S1131750EF93FF938CB1E091D200F0E0EB51FF4F97
S113176080835D9BFECF8CB9E091D200F0E0EB5119
S1131770FF4F90818091D600981303C085EE90E0CE
S11317809ADE8091D2008F5F8093D200FF91EF9117
S1131790BF91AF919F918F917F916F915F914F9185
S11317A03F912F910F900FBE0F901F90189510BC72
S11317B083E389B980B58F7E80BD80B58F7D80BD80
S11317C080B5877F80BD86E880BD52988AB18861E4
S11317D08AB9569A579A0895CF93DF9300D01F92EF
S11317E0CDB7DEB70E944800E2DFC0DC8DE090E0B8
S11317F09093D7008093D600C19AC29AC39A80E48A
S113180090E0B9D09093E6018093E50180E490E004
S1131810B2D09093E2008093E1001A8219821B8275
S11318201A82198289819A81089734F522E01B82F1
S11318308B818830C0F489819A813B81880F991FFC
S1131840880F991F880F991F830F911DE091E5015F
S1131850F091E601E80FF91F20838B818F5F8B8362
S11318608B81883040F389819A8101969A83898398
S113187089819A810897DCF2E091E501F091E60113
S113188081E0838F148E13A284A31092D30010924C
S1131890D2001092CE001092CC001092D90092E0A7
S11318A0909366008093E000789412E08091CC00DD
S11318B0882309F445C08FE19EE40197F1F700C045
S11318C000008091CC008230E1F71092CC0080912E
S11318D0D30090E0FC01EB51FF4F20812F3471F4D1
S11318E0FC01EB51FF4F81818B3431F58091D200A3
S11318F08093D30081E09FDB109366008091D30036
S113190090E0FC01EB51FF4F20812035A9F4FC014C
S1131910EB51FF4F81818C3479F48091CE0081307A
S113192021F41092CE0029DC07C043E060E088EC8B
S113193090E0C5DA109366008091D2008093D300C2
S11319408091660081110AC08091CD00811106C08A
S113195081E08093CD0011DC1092660080916600D6
S1131960813009F0A3CF1092CD0007DC81E0809391
S113197066000EDC9BCF0F931F93CF93DF938230CF
S1131980910510F482E090E0E091EC01F091ED011A
S113199020E030E0A0E0B0E0309719F140815181BF
S11319A00281138148175907C8F08417950769F411
S11319B0109731F012960C93129713961C9327C02C
S11319C00093EC011093ED0122C02115310519F0AB
S11319D04217530718F49A01BD01EF01DF01F80122
S11319E0DBCF21153105F9F0281B390B24303105E3
S11319F080F48A819B816115710521F0FB01938339
S1131A00828304C09093ED018093EC01FE01329631
S1131A1044C0FE01E20FF31F8193919322503109D8
S1131A20398328833AC02091EA013091EB01232BBA
S1131A3041F420916200309163003093EB012093D4
S1131A40EA0120916000309161002115310541F4D3
S1131A502DB73EB74091640050916500241B350BAF
S1131A60E091EA01F091EB01E217F307A0F42E1BD9
S1131A703F0B2817390778F0AC014E5F5F4F2417EE
S1131A80350748F04E0F5F1F5093EB014093EA0176
S1131A908193919302C0E0E0F0E0CF01DF91CF9118
S1131AA01F910F910895CF93DF93009709F481C09C
S1131AB0FC01329713821282A091EC01B091ED01E6
S1131AC0109781F420813181820F931F2091EA01C4
S1131AD03091EB012817390751F5F093EB01E093AE
S1131AE0EA0167C0ED0120E030E0CE17DF0740F4E3
S1131AF04A815B819E0141155105F1F0EA01F5CF60
S1131B00D383C28340815181840F951FC817D9079D
S1131B1059F488819981840F951F0296918380835B
S1131B208A819B81938382832115310529F4F09363
S1131B30ED01E093EC013DC0E901FB83EA834991A7
S1131B405991C40FD51FEC17FD0761F48081918171
S1131B50840F951F0296E90199838883828193817A
S1131B609B838A83E0E0F0E012968D919C91139719
S1131B70009719F0FD01DC01F7CF8D919C9111972D
S1131B809D012E5F3F4F820F931F2091EA013091F8
S1131B90EB012817390769F4309729F41092ED0105
S1131BA01092EC0102C013821282B093EB01A09355
S10F1BB0EA01DF91CF910895F894FFCF73
S1131BBC0000EE01200002120B101010100B120B7F
S1131BCC0A0D0D0D0D0A0B100D0F0E0E0F0D10102E
S1131BDC0D0E0F0F0E0D10100D0E0F0F0E0D10100D
S1131BEC0D0F0E0E0F0D100B0A0D0D0D0D0A0B1211
S1131BFC0B101010100B124F4B0D0020000A0D008F
S1131C0C574E0D004C530D0054450D0049540D0016
S10F1C1C4D500D00494C0D0051540D00BA
S9030000FC
