S00A00004D312E737265639C
S113000029C0000042C0000040C000003EC0000003
S11300103CC000003AC0000038C0000036C00000F8
S113002063C0000032C0000030C00000DEC2000027
S11300302CC000003AC0000028C0000026C0000008
S113004024C0000022C0000020C000001EC0000028
S11300501CC0000011241FBECFE5D4E0DEBFCDBF1D
S113006010E0A0E6B0E0E2E1F9E002C005900D92F4
S1130070AE38B107D9F721E0AEE8B0E001C01D9277
S1130080AE39B207E1F71AD142C4BACF08959C0140
S1130090641750F45D9BFECFF901E60FF11D9081CA
S11300A09CB96F5F4613F6CF08951F920F920FB657
S11300B00F9211240F900FBE0F901F90189510BC33
S11300C083E389B980B58F7E80BD80B58F7D80BD87
S11300D080B5877F80BD86E880BD52988AB18861EB
S11300E08AB9569A579A08951F920F920FB60F9293
S11300F011242F933F934F935F936F937F938F9329
S11301009F93AF93BF93EF93FF93809166008130E9
S113011019F4109266000CC080916600811108C029
S113012043E060E087E690E0B2DF81E080938E00F8
S1130130FF91EF91BF91AF919F918F917F916F91BB
S11301405F914F913F912F910F900FBE0F901F9091
S1130150189599B79B7F99BF813051F443E060E0D3
S11301608BE690E094DF98B382E0892788BB0895FA
S113017081110AC043E060E08FE690E088DF98B325
S113018084E0892788BB089543E060E083E790E03A
S11301907EDF98B388E0892788BB0895E0919701B2
S11301A0F0919801BF01605C7F4F40E090E011C086
S11301B0DF018081811101C09F5F8C91813009F43E
S11301C04F5F31962E173F0799F7F9012617370726
S11301D021F09F01285F3F4FEBCF941303C082E0CF
S11301E0B8DF14C0491750F480919500811103C001
S11301F081E0AFDF0BC080E0ACDF08C080919500E8
S1130200813011F4A6DF02C080E0A3DF82E0809396
S113021066000895B99ABA9ABB9A08958CED9BE04A
S11302209DBD8CBD1FBC8EB584608EBD84E089BF2E
S1130230089546E060E08BE790E029DF8091660056
S11302404AE060E070E090E02FD341E060E01FDF1F
S113025081E080936600809166008111FCCF46E0C6
S113026060E083E890E013DF81E080939300809165
S113027093008823F1F38FE19EE40197F1F700C026
S11302800000809193008230B1F710929300809126
S1130290900090E0FC01E956FF4F20812F3439F79C
S11302A0FC01E956FF4F81818B3409F7B7DF809158
S11302B08F0080939000109266000895CF93DF938F
S11302C000D0CDB7DEB7E2DEFADEA4DFC19AC29A6F
S11302D0C39A80E490E0C7D19093980180939701EA
S11302E019821A8219828981883000F522E01A82E3
S11302F08A818830A8F439818A8190E048E0349F6B
S1130300800D911D1124E0919701F0919801E80F5F
S1130310F91F20838A818F5F8A838A81883058F30A
S113032089818F5F89838981883008F3E0919701FF
S1130330F091980181E0838F148E13A284A32DE0A1
S113034030E030939200209391001092900010922C
S11303508F0010928E001092930092E090936600AA
S113036080939500789412E080918E008823D1F1D7
S11303708FE19EE40197F1F700C0000080918E00A8
S11303808230E1F710928E008091900090E0FC01A1
S1130390E956FF4F20812F3471F4FC01E956FF4FD9
S11303A081818B34D9F480918F008093900081E017
S11303B0D0DE109366008091900090E0FC01E95635
S11303C0FF4F2081203551F4FC01E956FF4F818114
S11303D08C3421F480E0BDDE1093660080918F00A0
S11303E08093900080916600813009F0BDCF16DFC4
S11303F020DFBACF9C019091900040919100F901C7
S1130400E90FF11D8081841303C09F5F90939000D6
S113041080918E00813021F482E080938E000895D3
S113042080919300813021F482E0809393000895B9
S1130430B90190919000292F30E0FB01E20FF31FE6
S11304409081913499F4FB01E20FF31F918194356B
S113045009F0C5C0FB01E20FF31F82814813BFC03E
S113046043E060E087E790E012DEB9C09235E1F442
S1130470FB01E20FF31F9181933509F0B0C0FB013A
S1130480E20FF31F8281843509F0A9C010928E0017
S11304901092930082E08093660081E0809395003F
S11304A0C19AC29AC39A9BC09335D9F4FB01E20F57
S11304B0F31F9181903509F03CC0FB01E20FF31F5B
S11304C08381823419F41092950005C0873519F49C
S11304D081E08093950043E060E087E790E0D7DD1A
S11304E07EC09E3491F4FB01E20FF31F81818734B7
S11304F009F075C080919500811104C081E080935A
S113050066006DC0109266006AC0953431F5FB0137
S1130510E20FF31F8181873409F061C043E060E09A
S113052087E790E0B4DD80918F008093900036DE01
S113053056C0FB01E20FF31F8181843509F04FC0DF
S1130540FB01E20FF31F838180538093990143E001
S113055060E087E790E09BDD42C09D34E9F4FB0155
S1130560E20FF31F81818635D1F5FB01E20FF31F02
S113057083818154883098F5FB01E20FF31F848155
S11305808153883060F543E060E08AE890E07FDDE5
S113059081E080938E0023C0903589F4FB01E20F43
S11305A0F31F81818335D9F481E0809366008093C1
S11305B0920043E060E087E790E069DD10C0973582
S11305C071F4FB01E20FF31F81818E3441F482E068
S11305D08093660043E060E087E790E058DD809117
S11305E08F008F5F8093900008951F920F920FB633
S11305F00F9211242F933F934F935F936F937F93A5
S11306008F939F93AF93BF93EF93FF938CB1E0913C
S11306108F00F0E0E956FF4F80835D9BFECF8CB9DD
S1130620E0918F00F0E0E956FF4F908180919100B6
S1130630981303C087E990E0DDDE80918F008F5F1F
S113064080938F00FF91EF91BF91AF919F918F9114
S11306507F916F915F914F913F912F910F900FBEBA
S11306600F901F9018950F931F93CF93DF938230B1
S1130670910510F482E090E0E0919C01F0919D01DD
S113068020E030E0A0E0B0E0309719F140815181E2
S11306900281138148175907C8F08417950769F434
S11306A0109731F012960C93129713961C9327C04F
S11306B000939C0110939D0122C02115310519F06E
S11306C04217530718F49A01BD01EF01DF01F80145
S11306D0DBCF21153105F9F0281B390B2430310506
S11306E080F48A819B816115710521F0FB0193835C
S11306F0828304C090939D0180939C01FE013296F5
S113070044C0FE01E20FF31F8193919322503109FB
S1130710398328833AC020919A0130919B01232B7D
S113072041F4209162003091630030939B01209347
S11307309A0120916000309161002115310541F446
S11307402DB73EB74091640050916500241B350BD2
S1130750E0919A01F0919B01E217F307A0F42E1B9C
S11307603F0B2817390778F0AC014E5F5F4F241711
S1130770350748F04E0F5F1F50939B0140939A0139
S11307808193919302C0E0E0F0E0CF01DF91CF913B
S11307901F910F910895CF93DF93009709F481C0BF
S11307A0FC01329713821282A0919C01B0919D01A9
S11307B0109781F420813181820F931F20919A0137
S11307C030919B012817390751F5F0939B01E09371
S11307D09A0167C0ED0120E030E0CE17DF0740F456
S11307E04A815B819E0141155105F1F0EA01F5CF83
S11307F0D383C28340815181840F951FC817D907C1
S113080059F488819981840F951F0296918380837E
S11308108A819B81938382832115310529F4F09386
S11308209D01E0939C013DC0E901FB83EA8349916A
S11308305991C40FD51FEC17FD0761F48081918194
S1130840840F951F0296E90199838883828193819D
S11308509B838A83E0E0F0E012968D919C9113973C
S1130860009719F0FD01DC01F7CF8D919C91119750
S11308709D012E5F3F4F820F931F20919A0130916B
S11308809B012817390769F4309729F410929D01C8
S113089010929C0102C013821282B0939B01A09318
S11308A09A01DF91CF910895BB274A3031F49923FF
S11308B022F4BDE2909581959F4F01C0BB27FB01B7
S11308C05527AA27880F991FAA1FA41710F0A41B45
S11308D083955051B9F7A05DAA3308F0A95DA1939F
S11308E0009779F7B111B1931192CB0100C0DC01EB
S11308F0FC01672F71917723E1F7329704C07C9153
S11309006D9370836291AE17BF07C8F30895F8948E
S1050910FFCF13
S113091200009E0120000249540D00574E0D004C68
S1130922530D0054450D004F4B0D00414C474F4FA2
S11109320D0A004D4D2047320D00494C0D00BA
S9030000FC
